{
  "address": "0xe7f1725E7734CE288F8367e1Bb143E90bb3F0512",
  "abi": [
    {
      "inputs": [
        {
          "internalType": "string",
          "name": "name_",
          "type": "string"
        },
        {
          "internalType": "string",
          "name": "symbol_",
          "type": "string"
        }
      ],
      "stateMutability": "nonpayable",
      "type": "constructor"
    },
    {
      "anonymous": false,
      "inputs": [
        {
          "indexed": true,
          "internalType": "address",
          "name": "owner",
          "type": "address"
        },
        {
          "indexed": true,
          "internalType": "address",
          "name": "approved",
          "type": "address"
        },
        {
          "indexed": true,
          "internalType": "uint256",
          "name": "tokenId",
          "type": "uint256"
        }
      ],
      "name": "Approval",
      "type": "event"
    },
    {
      "anonymous": false,
      "inputs": [
        {
          "indexed": true,
          "internalType": "address",
          "name": "owner",
          "type": "address"
        },
        {
          "indexed": true,
          "internalType": "address",
          "name": "operator",
          "type": "address"
        },
        {
          "indexed": false,
          "internalType": "bool",
          "name": "approved",
          "type": "bool"
        }
      ],
      "name": "ApprovalForAll",
      "type": "event"
    },
    {
      "anonymous": false,
      "inputs": [
        {
          "indexed": true,
          "internalType": "address",
          "name": "previousOwner",
          "type": "address"
        },
        {
          "indexed": true,
          "internalType": "address",
          "name": "newOwner",
          "type": "address"
        }
      ],
      "name": "OwnershipTransferred",
      "type": "event"
    },
    {
      "anonymous": false,
      "inputs": [
        {
          "indexed": true,
          "internalType": "address",
          "name": "from",
          "type": "address"
        },
        {
          "indexed": true,
          "internalType": "address",
          "name": "to",
          "type": "address"
        },
        {
          "indexed": true,
          "internalType": "uint256",
          "name": "tokenId",
          "type": "uint256"
        }
      ],
      "name": "Transfer",
      "type": "event"
    },
    {
      "inputs": [],
      "name": "TRANSFER_REQUEST_ID",
      "outputs": [
        {
          "internalType": "uint64",
          "name": "",
          "type": "uint64"
        }
      ],
      "stateMutability": "view",
      "type": "function"
    },
    {
      "inputs": [
        {
          "internalType": "address",
          "name": "",
          "type": "address"
        }
      ],
      "name": "addressToId",
      "outputs": [
        {
          "internalType": "uint256",
          "name": "",
          "type": "uint256"
        }
      ],
      "stateMutability": "view",
      "type": "function"
    },
    {
      "inputs": [
        {
          "internalType": "address",
          "name": "to",
          "type": "address"
        },
        {
          "internalType": "uint256",
          "name": "tokenId",
          "type": "uint256"
        }
      ],
      "name": "approve",
      "outputs": [],
      "stateMutability": "nonpayable",
      "type": "function"
    },
    {
      "inputs": [
        {
          "internalType": "address",
          "name": "owner",
          "type": "address"
        }
      ],
      "name": "balanceOf",
      "outputs": [
        {
          "internalType": "uint256",
          "name": "",
          "type": "uint256"
        }
      ],
      "stateMutability": "view",
      "type": "function"
    },
    {
      "inputs": [
        {
          "internalType": "uint256",
          "name": "tokenId",
          "type": "uint256"
        }
      ],
      "name": "getApproved",
      "outputs": [
        {
          "internalType": "address",
          "name": "",
          "type": "address"
        }
      ],
      "stateMutability": "view",
      "type": "function"
    },
    {
      "inputs": [],
      "name": "getSupportedRequests",
      "outputs": [
        {
          "internalType": "uint64[]",
          "name": "arr",
          "type": "uint64[]"
        }
      ],
      "stateMutability": "view",
      "type": "function"
    },
    {
      "inputs": [
        {
          "internalType": "uint64",
          "name": "requestId",
          "type": "uint64"
        }
      ],
      "name": "getZKPRequest",
      "outputs": [
        {
          "components": [
            {
              "internalType": "uint256",
              "name": "schema",
              "type": "uint256"
            },
            {
              "internalType": "uint256",
              "name": "slotIndex",
              "type": "uint256"
            },
            {
              "internalType": "uint256",
              "name": "operator",
              "type": "uint256"
            },
            {
              "internalType": "uint256[]",
              "name": "value",
              "type": "uint256[]"
            },
            {
              "internalType": "string",
              "name": "circuitId",
              "type": "string"
            }
          ],
          "internalType": "struct ICircuitValidator.CircuitQuery",
          "name": "",
          "type": "tuple"
        }
      ],
      "stateMutability": "view",
      "type": "function"
    },
    {
      "inputs": [
        {
          "internalType": "uint256",
          "name": "",
          "type": "uint256"
        }
      ],
      "name": "idToAddress",
      "outputs": [
        {
          "internalType": "address",
          "name": "",
          "type": "address"
        }
      ],
      "stateMutability": "view",
      "type": "function"
    },
    {
      "inputs": [
        {
          "internalType": "address",
          "name": "owner",
          "type": "address"
        },
        {
          "internalType": "address",
          "name": "operator",
          "type": "address"
        }
      ],
      "name": "isApprovedForAll",
      "outputs": [
        {
          "internalType": "bool",
          "name": "",
          "type": "bool"
        }
      ],
      "stateMutability": "view",
      "type": "function"
    },
    {
      "inputs": [],
      "name": "name",
      "outputs": [
        {
          "internalType": "string",
          "name": "",
          "type": "string"
        }
      ],
      "stateMutability": "view",
      "type": "function"
    },
    {
      "inputs": [],
      "name": "owner",
      "outputs": [
        {
          "internalType": "address",
          "name": "",
          "type": "address"
        }
      ],
      "stateMutability": "view",
      "type": "function"
    },
    {
      "inputs": [
        {
          "internalType": "uint256",
          "name": "tokenId",
          "type": "uint256"
        }
      ],
      "name": "ownerOf",
      "outputs": [
        {
          "internalType": "address",
          "name": "",
          "type": "address"
        }
      ],
      "stateMutability": "view",
      "type": "function"
    },
    {
      "inputs": [
        {
          "internalType": "address",
          "name": "",
          "type": "address"
        },
        {
          "internalType": "uint64",
          "name": "",
          "type": "uint64"
        }
      ],
      "name": "proofs",
      "outputs": [
        {
          "internalType": "bool",
          "name": "",
          "type": "bool"
        }
      ],
      "stateMutability": "view",
      "type": "function"
    },
    {
      "inputs": [],
      "name": "renounceOwnership",
      "outputs": [],
      "stateMutability": "nonpayable",
      "type": "function"
    },
    {
      "inputs": [
        {
          "internalType": "uint64",
          "name": "",
          "type": "uint64"
        }
      ],
      "name": "requestQueries",
      "outputs": [
        {
          "internalType": "uint256",
          "name": "schema",
          "type": "uint256"
        },
        {
          "internalType": "uint256",
          "name": "slotIndex",
          "type": "uint256"
        },
        {
          "internalType": "uint256",
          "name": "operator",
          "type": "uint256"
        },
        {
          "internalType": "string",
          "name": "circuitId",
          "type": "string"
        }
      ],
      "stateMutability": "view",
      "type": "function"
    },
    {
      "inputs": [
        {
          "internalType": "uint64",
          "name": "",
          "type": "uint64"
        }
      ],
      "name": "requestValidators",
      "outputs": [
        {
          "internalType": "contract ICircuitValidator",
          "name": "",
          "type": "address"
        }
      ],
      "stateMutability": "view",
      "type": "function"
    },
    {
      "inputs": [
        {
          "internalType": "address",
          "name": "from",
          "type": "address"
        },
        {
          "internalType": "address",
          "name": "to",
          "type": "address"
        },
        {
          "internalType": "uint256",
          "name": "tokenId",
          "type": "uint256"
        }
      ],
      "name": "safeTransferFrom",
      "outputs": [],
      "stateMutability": "nonpayable",
      "type": "function"
    },
    {
      "inputs": [
        {
          "internalType": "address",
          "name": "from",
          "type": "address"
        },
        {
          "internalType": "address",
          "name": "to",
          "type": "address"
        },
        {
          "internalType": "uint256",
          "name": "tokenId",
          "type": "uint256"
        },
        {
          "internalType": "bytes",
          "name": "data",
          "type": "bytes"
        }
      ],
      "name": "safeTransferFrom",
      "outputs": [],
      "stateMutability": "nonpayable",
      "type": "function"
    },
    {
      "inputs": [
        {
          "internalType": "address",
          "name": "operator",
          "type": "address"
        },
        {
          "internalType": "bool",
          "name": "approved",
          "type": "bool"
        }
      ],
      "name": "setApprovalForAll",
      "outputs": [],
      "stateMutability": "nonpayable",
      "type": "function"
    },
    {
      "inputs": [
        {
          "internalType": "uint64",
          "name": "requestId",
          "type": "uint64"
        },
        {
          "internalType": "contract ICircuitValidator",
          "name": "validator",
          "type": "address"
        },
        {
          "components": [
            {
              "internalType": "uint256",
              "name": "schema",
              "type": "uint256"
            },
            {
              "internalType": "uint256",
              "name": "slotIndex",
              "type": "uint256"
            },
            {
              "internalType": "uint256",
              "name": "operator",
              "type": "uint256"
            },
            {
              "internalType": "uint256[]",
              "name": "value",
              "type": "uint256[]"
            },
            {
              "internalType": "string",
              "name": "circuitId",
              "type": "string"
            }
          ],
          "internalType": "struct ICircuitValidator.CircuitQuery",
          "name": "query",
          "type": "tuple"
        }
      ],
      "name": "setZKPRequest",
      "outputs": [
        {
          "internalType": "bool",
          "name": "",
          "type": "bool"
        }
      ],
      "stateMutability": "nonpayable",
      "type": "function"
    },
    {
      "inputs": [
        {
          "internalType": "uint64",
          "name": "requestId",
          "type": "uint64"
        },
        {
          "internalType": "uint256[]",
          "name": "inputs",
          "type": "uint256[]"
        },
        {
          "internalType": "uint256[2]",
          "name": "a",
          "type": "uint256[2]"
        },
        {
          "internalType": "uint256[2][2]",
          "name": "b",
          "type": "uint256[2][2]"
        },
        {
          "internalType": "uint256[2]",
          "name": "c",
          "type": "uint256[2]"
        }
      ],
      "name": "submitZKPResponse",
      "outputs": [
        {
          "internalType": "bool",
          "name": "",
          "type": "bool"
        }
      ],
      "stateMutability": "nonpayable",
      "type": "function"
    },
    {
      "inputs": [
        {
          "internalType": "uint256",
          "name": "",
          "type": "uint256"
        }
      ],
      "name": "supportedRequests",
      "outputs": [
        {
          "internalType": "uint64",
          "name": "",
          "type": "uint64"
        }
      ],
      "stateMutability": "view",
      "type": "function"
    },
    {
      "inputs": [
        {
          "internalType": "bytes4",
          "name": "interfaceId",
          "type": "bytes4"
        }
      ],
      "name": "supportsInterface",
      "outputs": [
        {
          "internalType": "bool",
          "name": "",
          "type": "bool"
        }
      ],
      "stateMutability": "view",
      "type": "function"
    },
    {
      "inputs": [],
      "name": "symbol",
      "outputs": [
        {
          "internalType": "string",
          "name": "",
          "type": "string"
        }
      ],
      "stateMutability": "view",
      "type": "function"
    },
    {
      "inputs": [
        {
          "internalType": "uint256",
          "name": "tokenId",
          "type": "uint256"
        }
      ],
      "name": "tokenURI",
      "outputs": [
        {
          "internalType": "string",
          "name": "",
          "type": "string"
        }
      ],
      "stateMutability": "view",
      "type": "function"
    },
    {
      "inputs": [],
      "name": "totalSupply",
      "outputs": [
        {
          "internalType": "uint256",
          "name": "",
          "type": "uint256"
        }
      ],
      "stateMutability": "view",
      "type": "function"
    },
    {
      "inputs": [
        {
          "internalType": "address",
          "name": "from",
          "type": "address"
        },
        {
          "internalType": "address",
          "name": "to",
          "type": "address"
        },
        {
          "internalType": "uint256",
          "name": "tokenId",
          "type": "uint256"
        }
      ],
      "name": "transferFrom",
      "outputs": [],
      "stateMutability": "nonpayable",
      "type": "function"
    },
    {
      "inputs": [
        {
          "internalType": "address",
          "name": "newOwner",
          "type": "address"
        }
      ],
      "name": "transferOwnership",
      "outputs": [],
      "stateMutability": "nonpayable",
      "type": "function"
    }
  ],
  "transactionHash": "0xce611d5031d984803dccf16075466865dcd24c39a933f862016958281f1b21b0",
  "args": [
    "Mansions MarketPlace",
    "MMP"
  ],
  "numDeployments": 1,
  "solcInputHash": "8b6bf3a62b514201a28222bf817abc6a",
  "bytecode": "0x60806040523480156200001157600080fd5b506040516200530a3803806200530a8339818101604052810190620000379190620003e2565b818181600090805190602001906200005192919062000195565b5080600190805190602001906200006a92919062000195565b5050506200008d62000081620000c760201b60201c565b620000cf60201b60201c565b81600b9080519060200190620000a592919062000195565b5080600c9080519060200190620000be92919062000195565b505050620004cc565b600033905090565b6000600660009054906101000a900473ffffffffffffffffffffffffffffffffffffffff16905081600660006101000a81548173ffffffffffffffffffffffffffffffffffffffff021916908373ffffffffffffffffffffffffffffffffffffffff1602179055508173ffffffffffffffffffffffffffffffffffffffff168173ffffffffffffffffffffffffffffffffffffffff167f8be0079c531659141344cd1fd0a4f28419497f9722a3daafe3b4186f6b6457e060405160405180910390a35050565b828054620001a39062000496565b90600052602060002090601f016020900481019282620001c7576000855562000213565b82601f10620001e257805160ff191683800117855562000213565b8280016001018555821562000213579182015b8281111562000212578251825591602001919060010190620001f5565b5b50905062000222919062000226565b5090565b5b808211156200024157600081600090555060010162000227565b5090565b6000604051905090565b600080fd5b600080fd5b600080fd5b600080fd5b6000601f19601f8301169050919050565b7f4e487b7100000000000000000000000000000000000000000000000000000000600052604160045260246000fd5b620002ae8262000263565b810181811067ffffffffffffffff82111715620002d057620002cf62000274565b5b80604052505050565b6000620002e562000245565b9050620002f38282620002a3565b919050565b600067ffffffffffffffff82111562000316576200031562000274565b5b620003218262000263565b9050602081019050919050565b60005b838110156200034e57808201518184015260208101905062000331565b838111156200035e576000848401525b50505050565b60006200037b6200037584620002f8565b620002d9565b9050828152602081018484840111156200039a57620003996200025e565b5b620003a78482856200032e565b509392505050565b600082601f830112620003c757620003c662000259565b5b8151620003d984826020860162000364565b91505092915050565b60008060408385031215620003fc57620003fb6200024f565b5b600083015167ffffffffffffffff8111156200041d576200041c62000254565b5b6200042b85828601620003af565b925050602083015167ffffffffffffffff8111156200044f576200044e62000254565b5b6200045d85828601620003af565b9150509250929050565b7f4e487b7100000000000000000000000000000000000000000000000000000000600052602260045260246000fd5b60006002820490506001821680620004af57607f821691505b60208210811415620004c657620004c562000467565b5b50919050565b614e2e80620004dc6000396000f3fe608060405234801561001057600080fd5b50600436106101c45760003560e01c806395d89b41116100f9578063c76d084511610097578063e985e9c511610071578063e985e9c514610556578063f143532614610586578063f2fde38b146105b6578063fee207e6146105d2576101c4565b8063c76d0845146104c6578063c87b56dd146104f6578063cb0e0d7d14610526576101c4565b8063a8723114116100d3578063a87231141461041a578063b45c0fdf1461044a578063b68967e21461047a578063b88d4fde146104aa576101c4565b806395d89b41146103ad57806396bf4741146103cb578063a22cb465146103fe576101c4565b806337ba95231161016657806363ec508f1161014057806363ec508f1461033757806370a0823114610355578063715018a6146103855780638da5cb5b1461038f576101c4565b806337ba9523146102cd57806342842e0e146102eb5780636352211e14610307576101c4565b8063095ea7b3116101a2578063095ea7b31461024757806318160ddd1461026357806323b872dd146102815780632a2d0c471461029d576101c4565b806301ffc9a7146101c957806306fdde03146101f9578063081812fc14610217575b600080fd5b6101e360048036038101906101de9190612ea2565b610602565b6040516101f09190612eea565b60405180910390f35b6102016106e4565b60405161020e9190612f9e565b60405180910390f35b610231600480360381019061022c9190612ff6565b610776565b60405161023e9190613064565b60405180910390f35b610261600480360381019061025c91906130ab565b6107bc565b005b61026b6108d4565b60405161027891906130fa565b60405180910390f35b61029b60048036038101906102969190613115565b6108e5565b005b6102b760048036038101906102b29190612ff6565b610945565b6040516102c49190613064565b60405180910390f35b6102d5610978565b6040516102e2919061323a565b60405180910390f35b61030560048036038101906103009190613115565b610a04565b005b610321600480360381019061031c9190612ff6565b610a24565b60405161032e9190613064565b60405180910390f35b61033f610aab565b60405161034c919061326b565b60405180910390f35b61036f600480360381019061036a9190613286565b610ab0565b60405161037c91906130fa565b60405180910390f35b61038d610b68565b005b610397610b7c565b6040516103a49190613064565b60405180910390f35b6103b5610ba6565b6040516103c29190612f9e565b60405180910390f35b6103e560048036038101906103e091906132df565b610c38565b6040516103f5949392919061330c565b60405180910390f35b61041860048036038101906104139190613384565b610cf0565b005b610434600480360381019061042f91906132df565b610d06565b6040516104419190613423565b60405180910390f35b610464600480360381019061045f919061343e565b610d39565b6040516104719190612eea565b60405180910390f35b610494600480360381019061048f9190613728565b610d68565b6040516104a19190612eea565b60405180910390f35b6104c460048036038101906104bf9190613876565b6110f9565b005b6104e060048036038101906104db91906132df565b61115b565b6040516104ed9190613a7e565b60405180910390f35b610510600480360381019061050b9190612ff6565b6112a4565b60405161051d9190612f9e565b60405180910390f35b610540600480360381019061053b9190613286565b61130c565b60405161054d91906130fa565b60405180910390f35b610570600480360381019061056b9190613aa0565b611324565b60405161057d9190612eea565b60405180910390f35b6105a0600480360381019061059b9190612ff6565b6113b8565b6040516105ad919061326b565b60405180910390f35b6105d060048036038101906105cb9190613286565b6113f6565b005b6105ec60048036038101906105e79190613c8d565b61147a565b6040516105f99190612eea565b60405180910390f35b60007f80ac58cd000000000000000000000000000000000000000000000000000000007bffffffffffffffffffffffffffffffffffffffffffffffffffffffff1916827bffffffffffffffffffffffffffffffffffffffffffffffffffffffff191614806106cd57507f5b5e139f000000000000000000000000000000000000000000000000000000007bffffffffffffffffffffffffffffffffffffffffffffffffffffffff1916827bffffffffffffffffffffffffffffffffffffffffffffffffffffffff1916145b806106dd57506106dc8261172a565b5b9050919050565b6060600080546106f390613d2b565b80601f016020809104026020016040519081016040528092919081815260200182805461071f90613d2b565b801561076c5780601f106107415761010080835404028352916020019161076c565b820191906000526020600020905b81548152906001019060200180831161074f57829003601f168201915b5050505050905090565b600061078182611794565b6004600083815260200190815260200160002060009054906101000a900473ffffffffffffffffffffffffffffffffffffffff169050919050565b60006107c782610a24565b90508073ffffffffffffffffffffffffffffffffffffffff168373ffffffffffffffffffffffffffffffffffffffff161415610838576040517f08c379a000000000000000000000000000000000000000000000000000000000815260040161082f90613dcf565b60405180910390fd5b8073ffffffffffffffffffffffffffffffffffffffff166108576117df565b73ffffffffffffffffffffffffffffffffffffffff1614806108865750610885816108806117df565b611324565b5b6108c5576040517f08c379a00000000000000000000000000000000000000000000000000000000081526004016108bc90613e61565b60405180910390fd5b6108cf83836117e7565b505050565b60006108e0600f6118a0565b905090565b6108f66108f06117df565b826118ae565b610935576040517f08c379a000000000000000000000000000000000000000000000000000000000815260040161092c90613ef3565b60405180910390fd5b610940838383611943565b505050565b600d6020528060005260406000206000915054906101000a900473ffffffffffffffffffffffffffffffffffffffff1681565b6060600a8054806020026020016040519081016040528092919081815260200182805480156109fa57602002820191906000526020600020906000905b82829054906101000a900467ffffffffffffffff1667ffffffffffffffff16815260200190600801906020826007010492830192600103820291508084116109b55790505b5050505050905090565b610a1f838383604051806020016040528060008152506110f9565b505050565b600080610a3083611c3d565b9050600073ffffffffffffffffffffffffffffffffffffffff168173ffffffffffffffffffffffffffffffffffffffff161415610aa2576040517f08c379a0000000000000000000000000000000000000000000000000000000008152600401610a9990613f5f565b60405180910390fd5b80915050919050565b600181565b60008073ffffffffffffffffffffffffffffffffffffffff168273ffffffffffffffffffffffffffffffffffffffff161415610b21576040517f08c379a0000000000000000000000000000000000000000000000000000000008152600401610b1890613ff1565b60405180910390fd5b600360008373ffffffffffffffffffffffffffffffffffffffff1673ffffffffffffffffffffffffffffffffffffffff168152602001908152602001600020549050919050565b610b70611c7a565b610b7a6000611cf8565b565b6000600660009054906101000a900473ffffffffffffffffffffffffffffffffffffffff16905090565b606060018054610bb590613d2b565b80601f0160208091040260200160405190810160405280929190818152602001828054610be190613d2b565b8015610c2e5780601f10610c0357610100808354040283529160200191610c2e565b820191906000526020600020905b815481529060010190602001808311610c1157829003601f168201915b5050505050905090565b6008602052806000526040600020600091509050806000015490806001015490806002015490806004018054610c6d90613d2b565b80601f0160208091040260200160405190810160405280929190818152602001828054610c9990613d2b565b8015610ce65780601f10610cbb57610100808354040283529160200191610ce6565b820191906000526020600020905b815481529060010190602001808311610cc957829003601f168201915b5050505050905084565b610d02610cfb6117df565b8383611dbe565b5050565b60096020528060005260406000206000915054906101000a900473ffffffffffffffffffffffffffffffffffffffff1681565b60076020528160005260406000206020528060005260406000206000915091509054906101000a900460ff1681565b60008073ffffffffffffffffffffffffffffffffffffffff16600960008867ffffffffffffffff1667ffffffffffffffff16815260200190815260200160002060009054906101000a900473ffffffffffffffffffffffffffffffffffffffff1673ffffffffffffffffffffffffffffffffffffffff161415610e20576040517f08c379a0000000000000000000000000000000000000000000000000000000008152600401610e1790614083565b60405180910390fd5b6000600860008867ffffffffffffffff1667ffffffffffffffff168152602001908152602001600020600001541415610e8e576040517f08c379a0000000000000000000000000000000000000000000000000000000008152600401610e8590614115565b60405180910390fd5b610ee08686600960008a67ffffffffffffffff1667ffffffffffffffff16815260200190815260200160002060009054906101000a900473ffffffffffffffffffffffffffffffffffffffff16611f2b565b600960008767ffffffffffffffff1667ffffffffffffffff16815260200190815260200160002060009054906101000a900473ffffffffffffffffffffffffffffffffffffffff1673ffffffffffffffffffffffffffffffffffffffff166367e1d50486868686600860008d67ffffffffffffffff1667ffffffffffffffff1681526020019081526020016000206040518663ffffffff1660e01b8152600401610f8e95949392919061452f565b60206040518083038186803b158015610fa657600080fd5b505afa158015610fba573d6000803e3d6000fd5b505050506040513d601f19601f82011682018060405250810190610fde91906145a7565b61101d576040517f08c379a000000000000000000000000000000000000000000000000000000000815260040161101490614620565b60405180910390fd5b6001600760003373ffffffffffffffffffffffffffffffffffffffff1673ffffffffffffffffffffffffffffffffffffffff16815260200190815260200160002060008867ffffffffffffffff1667ffffffffffffffff16815260200190815260200160002060006101000a81548160ff0219169083151502179055506110ec8686600960008a67ffffffffffffffff1667ffffffffffffffff16815260200190815260200160002060009054906101000a900473ffffffffffffffffffffffffffffffffffffffff1661204a565b6001905095945050505050565b61110a6111046117df565b836118ae565b611149576040517f08c379a000000000000000000000000000000000000000000000000000000000815260040161114090613ef3565b60405180910390fd5b611155848484846122cc565b50505050565b611163612d17565b600860008367ffffffffffffffff1667ffffffffffffffff1681526020019081526020016000206040518060a00160405290816000820154815260200160018201548152602001600282015481526020016003820180548060200260200160405190810160405280929190818152602001828054801561120257602002820191906000526020600020905b8154815260200190600101908083116111ee575b5050505050815260200160048201805461121b90613d2b565b80601f016020809104026020016040519081016040528092919081815260200182805461124790613d2b565b80156112945780601f1061126957610100808354040283529160200191611294565b820191906000526020600020905b81548152906001019060200180831161127757829003601f168201915b5050505050815250509050919050565b60606112af82611794565b60006112b9612328565b905060008151116112d95760405180602001604052806000815250611304565b806112e38461233f565b6040516020016112f492919061467c565b6040516020818303038152906040525b915050919050565b600e6020528060005260406000206000915090505481565b6000600560008473ffffffffffffffffffffffffffffffffffffffff1673ffffffffffffffffffffffffffffffffffffffff16815260200190815260200160002060008373ffffffffffffffffffffffffffffffffffffffff1673ffffffffffffffffffffffffffffffffffffffff16815260200190815260200160002060009054906101000a900460ff16905092915050565b600a81815481106113c857600080fd5b9060005260206000209060049182820401919006600802915054906101000a900467ffffffffffffffff1681565b6113fe611c7a565b600073ffffffffffffffffffffffffffffffffffffffff168173ffffffffffffffffffffffffffffffffffffffff16141561146e576040517f08c379a000000000000000000000000000000000000000000000000000000000815260040161146590614712565b60405180910390fd5b61147781611cf8565b50565b6000611484611c7a565b600073ffffffffffffffffffffffffffffffffffffffff16600960008667ffffffffffffffff1667ffffffffffffffff16815260200190815260200160002060009054906101000a900473ffffffffffffffffffffffffffffffffffffffff1673ffffffffffffffffffffffffffffffffffffffff16141561155757600a8490806001815401808255809150506001900390600052602060002090600491828204019190066008029091909190916101000a81548167ffffffffffffffff021916908367ffffffffffffffff1602179055505b8160600151600860008667ffffffffffffffff1667ffffffffffffffff1681526020019081526020016000206003019080519060200190611599929190612d46565b508160400151600860008667ffffffffffffffff1667ffffffffffffffff168152602001908152602001600020600201819055508160800151600860008667ffffffffffffffff1667ffffffffffffffff168152602001908152602001600020600401908051906020019061160f929190612d93565b508160200151600860008667ffffffffffffffff1667ffffffffffffffff168152602001908152602001600020600101819055508160000151600860008667ffffffffffffffff1667ffffffffffffffff168152602001908152602001600020600001819055508160800151600860008667ffffffffffffffff1667ffffffffffffffff16815260200190815260200160002060040190805190602001906116b8929190612d93565b5082600960008667ffffffffffffffff1667ffffffffffffffff16815260200190815260200160002060006101000a81548173ffffffffffffffffffffffffffffffffffffffff021916908373ffffffffffffffffffffffffffffffffffffffff160217905550600190509392505050565b60007f01ffc9a7000000000000000000000000000000000000000000000000000000007bffffffffffffffffffffffffffffffffffffffffffffffffffffffff1916827bffffffffffffffffffffffffffffffffffffffffffffffffffffffff1916149050919050565b61179d81612417565b6117dc576040517f08c379a00000000000000000000000000000000000000000000000000000000081526004016117d390613f5f565b60405180910390fd5b50565b600033905090565b816004600083815260200190815260200160002060006101000a81548173ffffffffffffffffffffffffffffffffffffffff021916908373ffffffffffffffffffffffffffffffffffffffff160217905550808273ffffffffffffffffffffffffffffffffffffffff1661185a83610a24565b73ffffffffffffffffffffffffffffffffffffffff167f8c5be1e5ebec7d5bd14f71427d1e84f3dd0314c0f7b2291e5b200ac8c7c3b92560405160405180910390a45050565b600081600001549050919050565b6000806118ba83610a24565b90508073ffffffffffffffffffffffffffffffffffffffff168473ffffffffffffffffffffffffffffffffffffffff1614806118fc57506118fb8185611324565b5b8061193a57508373ffffffffffffffffffffffffffffffffffffffff1661192284610776565b73ffffffffffffffffffffffffffffffffffffffff16145b91505092915050565b8273ffffffffffffffffffffffffffffffffffffffff1661196382610a24565b73ffffffffffffffffffffffffffffffffffffffff16146119b9576040517f08c379a00000000000000000000000000000000000000000000000000000000081526004016119b0906147a4565b60405180910390fd5b600073ffffffffffffffffffffffffffffffffffffffff168273ffffffffffffffffffffffffffffffffffffffff161415611a29576040517f08c379a0000000000000000000000000000000000000000000000000000000008152600401611a2090614836565b60405180910390fd5b611a368383836001612458565b8273ffffffffffffffffffffffffffffffffffffffff16611a5682610a24565b73ffffffffffffffffffffffffffffffffffffffff1614611aac576040517f08c379a0000000000000000000000000000000000000000000000000000000008152600401611aa3906147a4565b60405180910390fd5b6004600082815260200190815260200160002060006101000a81549073ffffffffffffffffffffffffffffffffffffffff02191690556001600360008573ffffffffffffffffffffffffffffffffffffffff1673ffffffffffffffffffffffffffffffffffffffff168152602001908152602001600020600082825403925050819055506001600360008473ffffffffffffffffffffffffffffffffffffffff1673ffffffffffffffffffffffffffffffffffffffff16815260200190815260200160002060008282540192505081905550816002600083815260200190815260200160002060006101000a81548173ffffffffffffffffffffffffffffffffffffffff021916908373ffffffffffffffffffffffffffffffffffffffff160217905550808273ffffffffffffffffffffffffffffffffffffffff168473ffffffffffffffffffffffffffffffffffffffff167fddf252ad1be2c89b69c2b068fc378daa952ba7f163c4a11628f55a4df523b3ef60405160405180910390a4611c38838383600161257e565b505050565b60006002600083815260200190815260200160002060009054906101000a900473ffffffffffffffffffffffffffffffffffffffff169050919050565b611c826117df565b73ffffffffffffffffffffffffffffffffffffffff16611ca0610b7c565b73ffffffffffffffffffffffffffffffffffffffff1614611cf6576040517f08c379a0000000000000000000000000000000000000000000000000000000008152600401611ced906148a2565b60405180910390fd5b565b6000600660009054906101000a900473ffffffffffffffffffffffffffffffffffffffff16905081600660006101000a81548173ffffffffffffffffffffffffffffffffffffffff021916908373ffffffffffffffffffffffffffffffffffffffff1602179055508173ffffffffffffffffffffffffffffffffffffffff168173ffffffffffffffffffffffffffffffffffffffff167f8be0079c531659141344cd1fd0a4f28419497f9722a3daafe3b4186f6b6457e060405160405180910390a35050565b8173ffffffffffffffffffffffffffffffffffffffff168373ffffffffffffffffffffffffffffffffffffffff161415611e2d576040517f08c379a0000000000000000000000000000000000000000000000000000000008152600401611e249061490e565b60405180910390fd5b80600560008573ffffffffffffffffffffffffffffffffffffffff1673ffffffffffffffffffffffffffffffffffffffff16815260200190815260200160002060008473ffffffffffffffffffffffffffffffffffffffff1673ffffffffffffffffffffffffffffffffffffffff16815260200190815260200160002060006101000a81548160ff0219169083151502179055508173ffffffffffffffffffffffffffffffffffffffff168373ffffffffffffffffffffffffffffffffffffffff167f17307eab39ab6107e8899845ad3d59bd9653f200f220920489ca2b5937696c3183604051611f1e9190612eea565b60405180910390a3505050565b6000611fcd838373ffffffffffffffffffffffffffffffffffffffff16639f442afa6040518163ffffffff1660e01b815260040160206040518083038186803b158015611f7757600080fd5b505afa158015611f8b573d6000803e3d6000fd5b505050506040513d601f19601f82011682018060405250810190611faf9190614943565b81518110611fc057611fbf614970565b5b6020026020010151612584565b90508073ffffffffffffffffffffffffffffffffffffffff16611fee6117df565b73ffffffffffffffffffffffffffffffffffffffff1614612044576040517f08c379a000000000000000000000000000000000000000000000000000000000815260040161203b90614a11565b60405180910390fd5b50505050565b600167ffffffffffffffff168367ffffffffffffffff161480156120b457506000600e60006120776117df565b73ffffffffffffffffffffffffffffffffffffffff1673ffffffffffffffffffffffffffffffffffffffff16815260200190815260200160002054145b6120f3576040517f08c379a00000000000000000000000000000000000000000000000000000000081526004016120ea90614aa3565b60405180910390fd5b6000828273ffffffffffffffffffffffffffffffffffffffff16639f442afa6040518163ffffffff1660e01b815260040160206040518083038186803b15801561213c57600080fd5b505afa158015612150573d6000803e3d6000fd5b505050506040513d601f19601f820116820180604052508101906121749190614943565b8151811061218557612184614970565b5b60200260200101519050600073ffffffffffffffffffffffffffffffffffffffff16600d600083815260200190815260200160002060009054906101000a900473ffffffffffffffffffffffffffffffffffffffff1673ffffffffffffffffffffffffffffffffffffffff1614156122c6576000612203600f6118a0565b905061220f600f6125a6565b61222061221a6117df565b826125bc565b81600e600061222d6117df565b73ffffffffffffffffffffffffffffffffffffffff1673ffffffffffffffffffffffffffffffffffffffff168152602001908152602001600020819055506122736117df565b600d600084815260200190815260200160002060006101000a81548173ffffffffffffffffffffffffffffffffffffffff021916908373ffffffffffffffffffffffffffffffffffffffff160217905550505b50505050565b6122d7848484611943565b6122e3848484846125da565b612322576040517f08c379a000000000000000000000000000000000000000000000000000000000815260040161231990614b35565b60405180910390fd5b50505050565b606060405180602001604052806000815250905090565b60606000600161234e84612771565b01905060008167ffffffffffffffff81111561236d5761236c613483565b5b6040519080825280601f01601f19166020018201604052801561239f5781602001600182028036833780820191505090505b509050600082602001820190505b60011561240c578080600190039150507f3031323334353637383961626364656600000000000000000000000000000000600a86061a8153600a85816123f6576123f5614b55565b5b04945060008514156124075761240c565b6123ad565b819350505050919050565b60008073ffffffffffffffffffffffffffffffffffffffff1661243983611c3d565b73ffffffffffffffffffffffffffffffffffffffff1614159050919050565b600181111561257857600073ffffffffffffffffffffffffffffffffffffffff168473ffffffffffffffffffffffffffffffffffffffff16146124ec5780600360008673ffffffffffffffffffffffffffffffffffffffff1673ffffffffffffffffffffffffffffffffffffffff16815260200190815260200160002060008282546124e49190614bb3565b925050819055505b600073ffffffffffffffffffffffffffffffffffffffff168373ffffffffffffffffffffffffffffffffffffffff16146125775780600360008573ffffffffffffffffffffffffffffffffffffffff1673ffffffffffffffffffffffffffffffffffffffff168152602001908152602001600020600082825461256f9190614be7565b925050819055505b5b50505050565b50505050565b600061259f61259a612595846128c4565b612a10565b612a6d565b9050919050565b6001816000016000828254019250508190555050565b6125d6828260405180602001604052806000815250612a7b565b5050565b60006125fb8473ffffffffffffffffffffffffffffffffffffffff16612ad6565b15612764578373ffffffffffffffffffffffffffffffffffffffff1663150b7a026126246117df565b8786866040518563ffffffff1660e01b81526004016126469493929190614c92565b602060405180830381600087803b15801561266057600080fd5b505af192505050801561269157506040513d601f19601f8201168201806040525081019061268e9190614cf3565b60015b612714573d80600081146126c1576040519150601f19603f3d011682016040523d82523d6000602084013e6126c6565b606091505b5060008151141561270c576040517f08c379a000000000000000000000000000000000000000000000000000000000815260040161270390614b35565b60405180910390fd5b805181602001fd5b63150b7a0260e01b7bffffffffffffffffffffffffffffffffffffffffffffffffffffffff1916817bffffffffffffffffffffffffffffffffffffffffffffffffffffffff191614915050612769565b600190505b949350505050565b600080600090507a184f03e93ff9f4daa797ed6e38ed64bf6a1f01000000000000000083106127cf577a184f03e93ff9f4daa797ed6e38ed64bf6a1f01000000000000000083816127c5576127c4614b55565b5b0492506040810190505b6d04ee2d6d415b85acef8100000000831061280c576d04ee2d6d415b85acef8100000000838161280257612801614b55565b5b0492506020810190505b662386f26fc10000831061283b57662386f26fc10000838161283157612830614b55565b5b0492506010810190505b6305f5e1008310612864576305f5e100838161285a57612859614b55565b5b0492506008810190505b612710831061288957612710838161287f5761287e614b55565b5b0492506004810190505b606483106128ac57606483816128a2576128a1614b55565b5b0492506002810190505b600a83106128bb576001810190505b80915050919050565b600081905060087eff00ff00ff00ff00ff00ff00ff00ff00ff00ff00ff00ff00ff00ff00ff00ff8216901b60087fff00ff00ff00ff00ff00ff00ff00ff00ff00ff00ff00ff00ff00ff00ff00ff008316901c17905060107dffff0000ffff0000ffff0000ffff0000ffff0000ffff0000ffff0000ffff8216901b60107fffff0000ffff0000ffff0000ffff0000ffff0000ffff0000ffff0000ffff00008316901c17905060207bffffffff00000000ffffffff00000000ffffffff00000000ffffffff8216901b60207fffffffff00000000ffffffff00000000ffffffff00000000ffffffff000000008316901c179050604077ffffffffffffffff0000000000000000ffffffffffffffff8216901b60407fffffffffffffffff0000000000000000ffffffffffffffff00000000000000008316901c179050608081901b608082901c179050919050565b6060602067ffffffffffffffff811115612a2d57612a2c613483565b5b6040519080825280601f01601f191660200182016040528015612a5f5781602001600182028036833780820191505090505b509050816020820152919050565b600060148201519050919050565b612a858383612af9565b612a9260008484846125da565b612ad1576040517f08c379a0000000000000000000000000000000000000000000000000000000008152600401612ac890614b35565b60405180910390fd5b505050565b6000808273ffffffffffffffffffffffffffffffffffffffff163b119050919050565b600073ffffffffffffffffffffffffffffffffffffffff168273ffffffffffffffffffffffffffffffffffffffff161415612b69576040517f08c379a0000000000000000000000000000000000000000000000000000000008152600401612b6090614d6c565b60405180910390fd5b612b7281612417565b15612bb2576040517f08c379a0000000000000000000000000000000000000000000000000000000008152600401612ba990614dd8565b60405180910390fd5b612bc0600083836001612458565b612bc981612417565b15612c09576040517f08c379a0000000000000000000000000000000000000000000000000000000008152600401612c0090614dd8565b60405180910390fd5b6001600360008473ffffffffffffffffffffffffffffffffffffffff1673ffffffffffffffffffffffffffffffffffffffff16815260200190815260200160002060008282540192505081905550816002600083815260200190815260200160002060006101000a81548173ffffffffffffffffffffffffffffffffffffffff021916908373ffffffffffffffffffffffffffffffffffffffff160217905550808273ffffffffffffffffffffffffffffffffffffffff16600073ffffffffffffffffffffffffffffffffffffffff167fddf252ad1be2c89b69c2b068fc378daa952ba7f163c4a11628f55a4df523b3ef60405160405180910390a4612d1360008383600161257e565b5050565b6040518060a0016040528060008152602001600081526020016000815260200160608152602001606081525090565b828054828255906000526020600020908101928215612d82579160200282015b82811115612d81578251825591602001919060010190612d66565b5b509050612d8f9190612e19565b5090565b828054612d9f90613d2b565b90600052602060002090601f016020900481019282612dc15760008555612e08565b82601f10612dda57805160ff1916838001178555612e08565b82800160010185558215612e08579182015b82811115612e07578251825591602001919060010190612dec565b5b509050612e159190612e19565b5090565b5b80821115612e32576000816000905550600101612e1a565b5090565b6000604051905090565b600080fd5b600080fd5b60007fffffffff0000000000000000000000000000000000000000000000000000000082169050919050565b612e7f81612e4a565b8114612e8a57600080fd5b50565b600081359050612e9c81612e76565b92915050565b600060208284031215612eb857612eb7612e40565b5b6000612ec684828501612e8d565b91505092915050565b60008115159050919050565b612ee481612ecf565b82525050565b6000602082019050612eff6000830184612edb565b92915050565b600081519050919050565b600082825260208201905092915050565b60005b83811015612f3f578082015181840152602081019050612f24565b83811115612f4e576000848401525b50505050565b6000601f19601f8301169050919050565b6000612f7082612f05565b612f7a8185612f10565b9350612f8a818560208601612f21565b612f9381612f54565b840191505092915050565b60006020820190508181036000830152612fb88184612f65565b905092915050565b6000819050919050565b612fd381612fc0565b8114612fde57600080fd5b50565b600081359050612ff081612fca565b92915050565b60006020828403121561300c5761300b612e40565b5b600061301a84828501612fe1565b91505092915050565b600073ffffffffffffffffffffffffffffffffffffffff82169050919050565b600061304e82613023565b9050919050565b61305e81613043565b82525050565b60006020820190506130796000830184613055565b92915050565b61308881613043565b811461309357600080fd5b50565b6000813590506130a58161307f565b92915050565b600080604083850312156130c2576130c1612e40565b5b60006130d085828601613096565b92505060206130e185828601612fe1565b9150509250929050565b6130f481612fc0565b82525050565b600060208201905061310f60008301846130eb565b92915050565b60008060006060848603121561312e5761312d612e40565b5b600061313c86828701613096565b935050602061314d86828701613096565b925050604061315e86828701612fe1565b9150509250925092565b600081519050919050565b600082825260208201905092915050565b6000819050602082019050919050565b600067ffffffffffffffff82169050919050565b6131b181613194565b82525050565b60006131c383836131a8565b60208301905092915050565b6000602082019050919050565b60006131e782613168565b6131f18185613173565b93506131fc83613184565b8060005b8381101561322d57815161321488826131b7565b975061321f836131cf565b925050600181019050613200565b5085935050505092915050565b6000602082019050818103600083015261325481846131dc565b905092915050565b61326581613194565b82525050565b6000602082019050613280600083018461325c565b92915050565b60006020828403121561329c5761329b612e40565b5b60006132aa84828501613096565b91505092915050565b6132bc81613194565b81146132c757600080fd5b50565b6000813590506132d9816132b3565b92915050565b6000602082840312156132f5576132f4612e40565b5b6000613303848285016132ca565b91505092915050565b600060808201905061332160008301876130eb565b61332e60208301866130eb565b61333b60408301856130eb565b818103606083015261334d8184612f65565b905095945050505050565b61336181612ecf565b811461336c57600080fd5b50565b60008135905061337e81613358565b92915050565b6000806040838503121561339b5761339a612e40565b5b60006133a985828601613096565b92505060206133ba8582860161336f565b9150509250929050565b6000819050919050565b60006133e96133e46133df84613023565b6133c4565b613023565b9050919050565b60006133fb826133ce565b9050919050565b600061340d826133f0565b9050919050565b61341d81613402565b82525050565b60006020820190506134386000830184613414565b92915050565b6000806040838503121561345557613454612e40565b5b600061346385828601613096565b9250506020613474858286016132ca565b9150509250929050565b600080fd5b7f4e487b7100000000000000000000000000000000000000000000000000000000600052604160045260246000fd5b6134bb82612f54565b810181811067ffffffffffffffff821117156134da576134d9613483565b5b80604052505050565b60006134ed612e36565b90506134f982826134b2565b919050565b600067ffffffffffffffff82111561351957613518613483565b5b602082029050602081019050919050565b600080fd5b600061354261353d846134fe565b6134e3565b905080838252602082019050602084028301858111156135655761356461352a565b5b835b8181101561358e578061357a8882612fe1565b845260208401935050602081019050613567565b5050509392505050565b600082601f8301126135ad576135ac61347e565b5b81356135bd84826020860161352f565b91505092915050565b600067ffffffffffffffff8211156135e1576135e0613483565b5b602082029050919050565b60006135ff6135fa846135c6565b6134e3565b905080602084028301858111156136195761361861352a565b5b835b81811015613642578061362e8882612fe1565b84526020840193505060208101905061361b565b5050509392505050565b600082601f8301126136615761366061347e565b5b600261366e8482856135ec565b91505092915050565b600067ffffffffffffffff82111561369257613691613483565b5b602082029050919050565b60006136b06136ab84613677565b6134e3565b905080604084028301858111156136ca576136c961352a565b5b835b818110156136f357806136df888261364c565b8452602084019350506040810190506136cc565b5050509392505050565b600082601f8301126137125761371161347e565b5b600261371f84828561369d565b91505092915050565b6000806000806000610140868803121561374557613744612e40565b5b6000613753888289016132ca565b955050602086013567ffffffffffffffff81111561377457613773612e45565b5b61378088828901613598565b94505060406137918882890161364c565b93505060806137a2888289016136fd565b9250506101006137b48882890161364c565b9150509295509295909350565b600080fd5b600067ffffffffffffffff8211156137e1576137e0613483565b5b6137ea82612f54565b9050602081019050919050565b82818337600083830152505050565b6000613819613814846137c6565b6134e3565b905082815260208101848484011115613835576138346137c1565b5b6138408482856137f7565b509392505050565b600082601f83011261385d5761385c61347e565b5b813561386d848260208601613806565b91505092915050565b600080600080608085870312156138905761388f612e40565b5b600061389e87828801613096565b94505060206138af87828801613096565b93505060406138c087828801612fe1565b925050606085013567ffffffffffffffff8111156138e1576138e0612e45565b5b6138ed87828801613848565b91505092959194509250565b61390281612fc0565b82525050565b600081519050919050565b600082825260208201905092915050565b6000819050602082019050919050565b600061394083836138f9565b60208301905092915050565b6000602082019050919050565b600061396482613908565b61396e8185613913565b935061397983613924565b8060005b838110156139aa5781516139918882613934565b975061399c8361394c565b92505060018101905061397d565b5085935050505092915050565b600082825260208201905092915050565b60006139d382612f05565b6139dd81856139b7565b93506139ed818560208601612f21565b6139f681612f54565b840191505092915050565b600060a083016000830151613a1960008601826138f9565b506020830151613a2c60208601826138f9565b506040830151613a3f60408601826138f9565b5060608301518482036060860152613a578282613959565b91505060808301518482036080860152613a7182826139c8565b9150508091505092915050565b60006020820190508181036000830152613a988184613a01565b905092915050565b60008060408385031215613ab757613ab6612e40565b5b6000613ac585828601613096565b9250506020613ad685828601613096565b9150509250929050565b6000613aeb82613043565b9050919050565b613afb81613ae0565b8114613b0657600080fd5b50565b600081359050613b1881613af2565b92915050565b600080fd5b600080fd5b600067ffffffffffffffff821115613b4357613b42613483565b5b613b4c82612f54565b9050602081019050919050565b6000613b6c613b6784613b28565b6134e3565b905082815260208101848484011115613b8857613b876137c1565b5b613b938482856137f7565b509392505050565b600082601f830112613bb057613baf61347e565b5b8135613bc0848260208601613b59565b91505092915050565b600060a08284031215613bdf57613bde613b1e565b5b613be960a06134e3565b90506000613bf984828501612fe1565b6000830152506020613c0d84828501612fe1565b6020830152506040613c2184828501612fe1565b604083015250606082013567ffffffffffffffff811115613c4557613c44613b23565b5b613c5184828501613598565b606083015250608082013567ffffffffffffffff811115613c7557613c74613b23565b5b613c8184828501613b9b565b60808301525092915050565b600080600060608486031215613ca657613ca5612e40565b5b6000613cb4868287016132ca565b9350506020613cc586828701613b09565b925050604084013567ffffffffffffffff811115613ce657613ce5612e45565b5b613cf286828701613bc9565b9150509250925092565b7f4e487b7100000000000000000000000000000000000000000000000000000000600052602260045260246000fd5b60006002820490506001821680613d4357607f821691505b60208210811415613d5757613d56613cfc565b5b50919050565b7f4552433732313a20617070726f76616c20746f2063757272656e74206f776e6560008201527f7200000000000000000000000000000000000000000000000000000000000000602082015250565b6000613db9602183612f10565b9150613dc482613d5d565b604082019050919050565b60006020820190508181036000830152613de881613dac565b9050919050565b7f4552433732313a20617070726f76652063616c6c6572206973206e6f7420746f60008201527f6b656e206f776e6572206f7220617070726f76656420666f7220616c6c000000602082015250565b6000613e4b603d83612f10565b9150613e5682613def565b604082019050919050565b60006020820190508181036000830152613e7a81613e3e565b9050919050565b7f4552433732313a2063616c6c6572206973206e6f7420746f6b656e206f776e6560008201527f72206f7220617070726f76656400000000000000000000000000000000000000602082015250565b6000613edd602d83612f10565b9150613ee882613e81565b604082019050919050565b60006020820190508181036000830152613f0c81613ed0565b9050919050565b7f4552433732313a20696e76616c696420746f6b656e2049440000000000000000600082015250565b6000613f49601883612f10565b9150613f5482613f13565b602082019050919050565b60006020820190508181036000830152613f7881613f3c565b9050919050565b7f4552433732313a2061646472657373207a65726f206973206e6f74206120766160008201527f6c6964206f776e65720000000000000000000000000000000000000000000000602082015250565b6000613fdb602983612f10565b9150613fe682613f7f565b604082019050919050565b6000602082019050818103600083015261400a81613fce565b9050919050565b7f76616c696461746f72206973206e6f742073657420666f72207468697320726560008201527f7175657374206964000000000000000000000000000000000000000000000000602082015250565b600061406d602883612f10565b915061407882614011565b604082019050919050565b6000602082019050818103600083015261409c81614060565b9050919050565b7f7175657279206973206e6f742073657420666f7220746869732072657175657360008201527f7420696400000000000000000000000000000000000000000000000000000000602082015250565b60006140ff602483612f10565b915061410a826140a3565b604082019050919050565b6000602082019050818103600083015261412e816140f2565b9050919050565b600082825260208201905092915050565b600061415182613908565b61415b8185614135565b935061416683613924565b8060005b8381101561419757815161417e8882613934565b97506141898361394c565b92505060018101905061416a565b5085935050505092915050565b600060029050919050565b600081905092915050565b6000819050919050565b6000602082019050919050565b6141da816141a4565b6141e481846141af565b92506141ef826141ba565b8060005b838110156142205781516142078782613934565b9650614212836141c4565b9250506001810190506141f3565b505050505050565b600060029050919050565b600081905092915050565b6000819050919050565b600081905092915050565b61425c816141a4565b6142668184614248565b9250614271826141ba565b8060005b838110156142a25781516142898782613934565b9650614294836141c4565b925050600181019050614275565b505050505050565b60006142b68383614253565b60408301905092915050565b6000602082019050919050565b6142d881614228565b6142e28184614233565b92506142ed8261423e565b8060005b8381101561431e57815161430587826142aa565b9650614310836142c2565b9250506001810190506142f1565b505050505050565b60008160001c9050919050565b6000819050919050565b600061435061434b83614326565b614333565b9050919050565b600081549050919050565b60008190508160005260206000209050919050565b6000614383825461433d565b9050919050565b6000600182019050919050565b60006143a282614357565b6143ac8185613913565b93506143b783614362565b8060005b838110156143ef576143cc82614377565b6143d68882613934565b97506143e18361438a565b9250506001810190506143bb565b5085935050505092915050565b60008190508160005260206000209050919050565b6000815461441e81613d2b565b61442881866139b7565b94506001821660008114614443576001811461445557614488565b60ff1983168652602086019350614488565b61445e856143fc565b60005b8381101561448057815481890152600182019150602081019050614461565b808801955050505b50505092915050565b600060a0830160008084015490506144a88161433d565b6144b560008701826138f9565b50600184015490506144c68161433d565b6144d360208701826138f9565b50600284015490506144e48161433d565b6144f160408701826138f9565b506003840185830360608701526145088382614397565b9250506004840185830360808701526145218382614411565b925050819250505092915050565b600061014082019050818103600083015261454a8188614146565b905061455960208301876141d1565b61456660608301866142cf565b61457360e08301856141d1565b8181036101208301526145868184614491565b90509695505050505050565b6000815190506145a181613358565b92915050565b6000602082840312156145bd576145bc612e40565b5b60006145cb84828501614592565b91505092915050565b7f70726f6f6620726573706f6e7365206973206e6f742076616c69640000000000600082015250565b600061460a601b83612f10565b9150614615826145d4565b602082019050919050565b60006020820190508181036000830152614639816145fd565b9050919050565b600081905092915050565b600061465682612f05565b6146608185614640565b9350614670818560208601612f21565b80840191505092915050565b6000614688828561464b565b9150614694828461464b565b91508190509392505050565b7f4f776e61626c653a206e6577206f776e657220697320746865207a65726f206160008201527f6464726573730000000000000000000000000000000000000000000000000000602082015250565b60006146fc602683612f10565b9150614707826146a0565b604082019050919050565b6000602082019050818103600083015261472b816146ef565b9050919050565b7f4552433732313a207472616e736665722066726f6d20696e636f72726563742060008201527f6f776e6572000000000000000000000000000000000000000000000000000000602082015250565b600061478e602583612f10565b915061479982614732565b604082019050919050565b600060208201905081810360008301526147bd81614781565b9050919050565b7f4552433732313a207472616e7366657220746f20746865207a65726f2061646460008201527f7265737300000000000000000000000000000000000000000000000000000000602082015250565b6000614820602483612f10565b915061482b826147c4565b604082019050919050565b6000602082019050818103600083015261484f81614813565b9050919050565b7f4f776e61626c653a2063616c6c6572206973206e6f7420746865206f776e6572600082015250565b600061488c602083612f10565b915061489782614856565b602082019050919050565b600060208201905081810360008301526148bb8161487f565b9050919050565b7f4552433732313a20617070726f766520746f2063616c6c657200000000000000600082015250565b60006148f8601983612f10565b9150614903826148c2565b602082019050919050565b60006020820190508181036000830152614927816148eb565b9050919050565b60008151905061493d81612fca565b92915050565b60006020828403121561495957614958612e40565b5b60006149678482850161492e565b91505092915050565b7f4e487b7100000000000000000000000000000000000000000000000000000000600052603260045260246000fd5b7f6164647265737320696e2070726f6f66206973206e6f7420612073656e64657260008201527f2061646472657373000000000000000000000000000000000000000000000000602082015250565b60006149fb602883612f10565b9150614a068261499f565b604082019050919050565b60006020820190508181036000830152614a2a816149ee565b9050919050565b7f70726f6f662063616e206e6f74206265207375626d6974746564206d6f72652060008201527f7468616e206f6e63650000000000000000000000000000000000000000000000602082015250565b6000614a8d602983612f10565b9150614a9882614a31565b604082019050919050565b60006020820190508181036000830152614abc81614a80565b9050919050565b7f4552433732313a207472616e7366657220746f206e6f6e20455243373231526560008201527f63656976657220696d706c656d656e7465720000000000000000000000000000602082015250565b6000614b1f603283612f10565b9150614b2a82614ac3565b604082019050919050565b60006020820190508181036000830152614b4e81614b12565b9050919050565b7f4e487b7100000000000000000000000000000000000000000000000000000000600052601260045260246000fd5b7f4e487b7100000000000000000000000000000000000000000000000000000000600052601160045260246000fd5b6000614bbe82612fc0565b9150614bc983612fc0565b925082821015614bdc57614bdb614b84565b5b828203905092915050565b6000614bf282612fc0565b9150614bfd83612fc0565b9250827fffffffffffffffffffffffffffffffffffffffffffffffffffffffffffffffff03821115614c3257614c31614b84565b5b828201905092915050565b600081519050919050565b600082825260208201905092915050565b6000614c6482614c3d565b614c6e8185614c48565b9350614c7e818560208601612f21565b614c8781612f54565b840191505092915050565b6000608082019050614ca76000830187613055565b614cb46020830186613055565b614cc160408301856130eb565b8181036060830152614cd38184614c59565b905095945050505050565b600081519050614ced81612e76565b92915050565b600060208284031215614d0957614d08612e40565b5b6000614d1784828501614cde565b91505092915050565b7f4552433732313a206d696e7420746f20746865207a65726f2061646472657373600082015250565b6000614d56602083612f10565b9150614d6182614d20565b602082019050919050565b60006020820190508181036000830152614d8581614d49565b9050919050565b7f4552433732313a20746f6b656e20616c7265616479206d696e74656400000000600082015250565b6000614dc2601c83612f10565b9150614dcd82614d8c565b602082019050919050565b60006020820190508181036000830152614df181614db5565b905091905056fea264697066735822122073bb3bede8f270dbfb2ff7af2eae89a3427f02b2cb498bce86357b66d72b65af64736f6c63430008090033",
  "devdoc": {
    "kind": "dev",
    "methods": {
      "approve(address,uint256)": {
        "details": "See {IERC721-approve}."
      },
      "balanceOf(address)": {
        "details": "See {IERC721-balanceOf}."
      },
      "getApproved(uint256)": {
        "details": "See {IERC721-getApproved}."
      },
      "getSupportedRequests()": {
        "details": "getSupportedRequests"
      },
      "getZKPRequest(uint64)": {
        "details": "getZKPRequest"
      },
      "isApprovedForAll(address,address)": {
        "details": "See {IERC721-isApprovedForAll}."
      },
      "name()": {
        "details": "See {IERC721Metadata-name}."
      },
      "owner()": {
        "details": "Returns the address of the current owner."
      },
      "ownerOf(uint256)": {
        "details": "See {IERC721-ownerOf}."
      },
      "renounceOwnership()": {
        "details": "Leaves the contract without owner. It will not be possible to call `onlyOwner` functions anymore. Can only be called by the current owner. NOTE: Renouncing ownership will leave the contract without an owner, thereby removing any functionality that is only available to the owner."
      },
      "safeTransferFrom(address,address,uint256)": {
        "details": "See {IERC721-safeTransferFrom}."
      },
      "safeTransferFrom(address,address,uint256,bytes)": {
        "details": "See {IERC721-safeTransferFrom}."
      },
      "setApprovalForAll(address,bool)": {
        "details": "See {IERC721-setApprovalForAll}."
      },
      "setZKPRequest(uint64,address,(uint256,uint256,uint256,uint256[],string))": {
        "details": "setZKPRequest"
      },
      "submitZKPResponse(uint64,uint256[],uint256[2],uint256[2][2],uint256[2])": {
        "details": "submitZKPResponse"
      },
      "supportsInterface(bytes4)": {
        "details": "See {IERC165-supportsInterface}."
      },
      "symbol()": {
        "details": "See {IERC721Metadata-symbol}."
      },
      "tokenURI(uint256)": {
        "details": "See {IERC721Metadata-tokenURI}."
      },
      "transferFrom(address,address,uint256)": {
        "details": "See {IERC721-transferFrom}."
      },
      "transferOwnership(address)": {
        "details": "Transfers ownership of the contract to a new account (`newOwner`). Can only be called by the current owner."
      }
    },
    "version": 1
  },
  "userdoc": {
    "kind": "user",
    "methods": {},
    "version": 1
  },
  "storageLayout": {
    "storage": [
      {
        "astId": 138,
        "contract": "contracts/Mansions.sol:RealEstateVerifier",
        "label": "_name",
        "offset": 0,
        "slot": "0",
        "type": "t_string_storage"
      },
      {
        "astId": 140,
        "contract": "contracts/Mansions.sol:RealEstateVerifier",
        "label": "_symbol",
        "offset": 0,
        "slot": "1",
        "type": "t_string_storage"
      },
      {
        "astId": 144,
        "contract": "contracts/Mansions.sol:RealEstateVerifier",
        "label": "_owners",
        "offset": 0,
        "slot": "2",
        "type": "t_mapping(t_uint256,t_address)"
      },
      {
        "astId": 148,
        "contract": "contracts/Mansions.sol:RealEstateVerifier",
        "label": "_balances",
        "offset": 0,
        "slot": "3",
        "type": "t_mapping(t_address,t_uint256)"
      },
      {
        "astId": 152,
        "contract": "contracts/Mansions.sol:RealEstateVerifier",
        "label": "_tokenApprovals",
        "offset": 0,
        "slot": "4",
        "type": "t_mapping(t_uint256,t_address)"
      },
      {
        "astId": 158,
        "contract": "contracts/Mansions.sol:RealEstateVerifier",
        "label": "_operatorApprovals",
        "offset": 0,
        "slot": "5",
        "type": "t_mapping(t_address,t_mapping(t_address,t_bool))"
      },
      {
        "astId": 7,
        "contract": "contracts/Mansions.sol:RealEstateVerifier",
        "label": "_owner",
        "offset": 0,
        "slot": "6",
        "type": "t_address"
      },
      {
        "astId": 3564,
        "contract": "contracts/Mansions.sol:RealEstateVerifier",
        "label": "proofs",
        "offset": 0,
        "slot": "7",
        "type": "t_mapping(t_address,t_mapping(t_uint64,t_bool))"
      },
      {
        "astId": 3569,
        "contract": "contracts/Mansions.sol:RealEstateVerifier",
        "label": "requestQueries",
        "offset": 0,
        "slot": "8",
        "type": "t_mapping(t_uint64,t_struct(CircuitQuery)3052_storage)"
      },
      {
        "astId": 3574,
        "contract": "contracts/Mansions.sol:RealEstateVerifier",
        "label": "requestValidators",
        "offset": 0,
        "slot": "9",
        "type": "t_mapping(t_uint64,t_contract(ICircuitValidator)3097)"
      },
      {
        "astId": 3577,
        "contract": "contracts/Mansions.sol:RealEstateVerifier",
        "label": "supportedRequests",
        "offset": 0,
        "slot": "10",
        "type": "t_array(t_uint64)dyn_storage"
      },
      {
        "astId": 2862,
        "contract": "contracts/Mansions.sol:RealEstateVerifier",
        "label": "erc721Name",
        "offset": 0,
        "slot": "11",
        "type": "t_string_storage"
      },
      {
        "astId": 2864,
        "contract": "contracts/Mansions.sol:RealEstateVerifier",
        "label": "erc721Symbol",
        "offset": 0,
        "slot": "12",
        "type": "t_string_storage"
      },
      {
        "astId": 2868,
        "contract": "contracts/Mansions.sol:RealEstateVerifier",
        "label": "idToAddress",
        "offset": 0,
        "slot": "13",
        "type": "t_mapping(t_uint256,t_address)"
      },
      {
        "astId": 2872,
        "contract": "contracts/Mansions.sol:RealEstateVerifier",
        "label": "addressToId",
        "offset": 0,
        "slot": "14",
        "type": "t_mapping(t_address,t_uint256)"
      },
      {
        "astId": 2879,
        "contract": "contracts/Mansions.sol:RealEstateVerifier",
        "label": "_tokenIds",
        "offset": 0,
        "slot": "15",
        "type": "t_struct(Counter)1701_storage"
      }
    ],
    "types": {
      "t_address": {
        "encoding": "inplace",
        "label": "address",
        "numberOfBytes": "20"
      },
      "t_array(t_uint256)dyn_storage": {
        "base": "t_uint256",
        "encoding": "dynamic_array",
        "label": "uint256[]",
        "numberOfBytes": "32"
      },
      "t_array(t_uint64)dyn_storage": {
        "base": "t_uint64",
        "encoding": "dynamic_array",
        "label": "uint64[]",
        "numberOfBytes": "32"
      },
      "t_bool": {
        "encoding": "inplace",
        "label": "bool",
        "numberOfBytes": "1"
      },
      "t_contract(ICircuitValidator)3097": {
        "encoding": "inplace",
        "label": "contract ICircuitValidator",
        "numberOfBytes": "20"
      },
      "t_mapping(t_address,t_bool)": {
        "encoding": "mapping",
        "key": "t_address",
        "label": "mapping(address => bool)",
        "numberOfBytes": "32",
        "value": "t_bool"
      },
      "t_mapping(t_address,t_mapping(t_address,t_bool))": {
        "encoding": "mapping",
        "key": "t_address",
        "label": "mapping(address => mapping(address => bool))",
        "numberOfBytes": "32",
        "value": "t_mapping(t_address,t_bool)"
      },
      "t_mapping(t_address,t_mapping(t_uint64,t_bool))": {
        "encoding": "mapping",
        "key": "t_address",
        "label": "mapping(address => mapping(uint64 => bool))",
        "numberOfBytes": "32",
        "value": "t_mapping(t_uint64,t_bool)"
      },
      "t_mapping(t_address,t_uint256)": {
        "encoding": "mapping",
        "key": "t_address",
        "label": "mapping(address => uint256)",
        "numberOfBytes": "32",
        "value": "t_uint256"
      },
      "t_mapping(t_uint256,t_address)": {
        "encoding": "mapping",
        "key": "t_uint256",
        "label": "mapping(uint256 => address)",
        "numberOfBytes": "32",
        "value": "t_address"
      },
      "t_mapping(t_uint64,t_bool)": {
        "encoding": "mapping",
        "key": "t_uint64",
        "label": "mapping(uint64 => bool)",
        "numberOfBytes": "32",
        "value": "t_bool"
      },
      "t_mapping(t_uint64,t_contract(ICircuitValidator)3097)": {
        "encoding": "mapping",
        "key": "t_uint64",
        "label": "mapping(uint64 => contract ICircuitValidator)",
        "numberOfBytes": "32",
        "value": "t_contract(ICircuitValidator)3097"
      },
      "t_mapping(t_uint64,t_struct(CircuitQuery)3052_storage)": {
        "encoding": "mapping",
        "key": "t_uint64",
        "label": "mapping(uint64 => struct ICircuitValidator.CircuitQuery)",
        "numberOfBytes": "32",
        "value": "t_struct(CircuitQuery)3052_storage"
      },
      "t_string_storage": {
        "encoding": "bytes",
        "label": "string",
        "numberOfBytes": "32"
      },
      "t_struct(CircuitQuery)3052_storage": {
        "encoding": "inplace",
        "label": "struct ICircuitValidator.CircuitQuery",
        "members": [
          {
            "astId": 3042,
            "contract": "contracts/Mansions.sol:RealEstateVerifier",
            "label": "schema",
            "offset": 0,
            "slot": "0",
            "type": "t_uint256"
          },
          {
            "astId": 3044,
            "contract": "contracts/Mansions.sol:RealEstateVerifier",
            "label": "slotIndex",
            "offset": 0,
            "slot": "1",
            "type": "t_uint256"
          },
          {
            "astId": 3046,
            "contract": "contracts/Mansions.sol:RealEstateVerifier",
            "label": "operator",
            "offset": 0,
            "slot": "2",
            "type": "t_uint256"
          },
          {
            "astId": 3049,
            "contract": "contracts/Mansions.sol:RealEstateVerifier",
            "label": "value",
            "offset": 0,
            "slot": "3",
            "type": "t_array(t_uint256)dyn_storage"
          },
          {
            "astId": 3051,
            "contract": "contracts/Mansions.sol:RealEstateVerifier",
            "label": "circuitId",
            "offset": 0,
            "slot": "4",
            "type": "t_string_storage"
          }
        ],
        "numberOfBytes": "160"
      },
      "t_struct(Counter)1701_storage": {
        "encoding": "inplace",
        "label": "struct Counters.Counter",
        "members": [
          {
            "astId": 1700,
            "contract": "contracts/Mansions.sol:RealEstateVerifier",
            "label": "_value",
            "offset": 0,
            "slot": "0",
            "type": "t_uint256"
          }
        ],
        "numberOfBytes": "32"
      },
      "t_uint256": {
        "encoding": "inplace",
        "label": "uint256",
        "numberOfBytes": "32"
      },
      "t_uint64": {
        "encoding": "inplace",
        "label": "uint64",
        "numberOfBytes": "8"
      }
    }
  }
}