{
  "address": "0xC2818ebB53dAB916422c6137eeAaB1156Bb5D6Af",
  "abi": [
    {
      "inputs": [
        {
          "internalType": "string",
          "name": "name_",
          "type": "string"
        },
        {
          "internalType": "string",
          "name": "symbol_",
          "type": "string"
        }
      ],
      "stateMutability": "nonpayable",
      "type": "constructor"
    },
    {
      "anonymous": false,
      "inputs": [
        {
          "indexed": true,
          "internalType": "address",
          "name": "owner",
          "type": "address"
        },
        {
          "indexed": true,
          "internalType": "address",
          "name": "approved",
          "type": "address"
        },
        {
          "indexed": true,
          "internalType": "uint256",
          "name": "tokenId",
          "type": "uint256"
        }
      ],
      "name": "Approval",
      "type": "event"
    },
    {
      "anonymous": false,
      "inputs": [
        {
          "indexed": true,
          "internalType": "address",
          "name": "owner",
          "type": "address"
        },
        {
          "indexed": true,
          "internalType": "address",
          "name": "operator",
          "type": "address"
        },
        {
          "indexed": false,
          "internalType": "bool",
          "name": "approved",
          "type": "bool"
        }
      ],
      "name": "ApprovalForAll",
      "type": "event"
    },
    {
      "anonymous": false,
      "inputs": [
        {
          "indexed": true,
          "internalType": "uint256",
          "name": "tokenId",
          "type": "uint256"
        },
        {
          "indexed": false,
          "internalType": "uint64",
          "name": "requestId",
          "type": "uint64"
        }
      ],
      "name": "CreatedNFT",
      "type": "event"
    },
    {
      "anonymous": false,
      "inputs": [
        {
          "indexed": true,
          "internalType": "address",
          "name": "previousOwner",
          "type": "address"
        },
        {
          "indexed": true,
          "internalType": "address",
          "name": "newOwner",
          "type": "address"
        }
      ],
      "name": "OwnershipTransferred",
      "type": "event"
    },
    {
      "anonymous": false,
      "inputs": [
        {
          "indexed": true,
          "internalType": "address",
          "name": "from",
          "type": "address"
        },
        {
          "indexed": true,
          "internalType": "address",
          "name": "to",
          "type": "address"
        },
        {
          "indexed": true,
          "internalType": "uint256",
          "name": "tokenId",
          "type": "uint256"
        }
      ],
      "name": "Transfer",
      "type": "event"
    },
    {
      "inputs": [],
      "name": "TRANSFER_REQUEST_ID",
      "outputs": [
        {
          "internalType": "uint64",
          "name": "",
          "type": "uint64"
        }
      ],
      "stateMutability": "view",
      "type": "function"
    },
    {
      "inputs": [
        {
          "internalType": "address",
          "name": "",
          "type": "address"
        }
      ],
      "name": "addressToId",
      "outputs": [
        {
          "internalType": "uint256",
          "name": "",
          "type": "uint256"
        }
      ],
      "stateMutability": "view",
      "type": "function"
    },
    {
      "inputs": [
        {
          "internalType": "address",
          "name": "to",
          "type": "address"
        },
        {
          "internalType": "uint256",
          "name": "tokenId",
          "type": "uint256"
        }
      ],
      "name": "approve",
      "outputs": [],
      "stateMutability": "nonpayable",
      "type": "function"
    },
    {
      "inputs": [
        {
          "internalType": "address",
          "name": "owner",
          "type": "address"
        }
      ],
      "name": "balanceOf",
      "outputs": [
        {
          "internalType": "uint256",
          "name": "",
          "type": "uint256"
        }
      ],
      "stateMutability": "view",
      "type": "function"
    },
    {
      "inputs": [
        {
          "internalType": "uint256",
          "name": "tokenId",
          "type": "uint256"
        }
      ],
      "name": "getApproved",
      "outputs": [
        {
          "internalType": "address",
          "name": "",
          "type": "address"
        }
      ],
      "stateMutability": "view",
      "type": "function"
    },
    {
      "inputs": [],
      "name": "getSupportedRequests",
      "outputs": [
        {
          "internalType": "uint64[]",
          "name": "arr",
          "type": "uint64[]"
        }
      ],
      "stateMutability": "view",
      "type": "function"
    },
    {
      "inputs": [
        {
          "internalType": "uint64",
          "name": "requestId",
          "type": "uint64"
        }
      ],
      "name": "getZKPRequest",
      "outputs": [
        {
          "components": [
            {
              "internalType": "uint256",
              "name": "schema",
              "type": "uint256"
            },
            {
              "internalType": "uint256",
              "name": "slotIndex",
              "type": "uint256"
            },
            {
              "internalType": "uint256",
              "name": "operator",
              "type": "uint256"
            },
            {
              "internalType": "uint256[]",
              "name": "value",
              "type": "uint256[]"
            },
            {
              "internalType": "string",
              "name": "circuitId",
              "type": "string"
            }
          ],
          "internalType": "struct ICircuitValidator.CircuitQuery",
          "name": "",
          "type": "tuple"
        }
      ],
      "stateMutability": "view",
      "type": "function"
    },
    {
      "inputs": [
        {
          "internalType": "uint256",
          "name": "",
          "type": "uint256"
        }
      ],
      "name": "idToAddress",
      "outputs": [
        {
          "internalType": "address",
          "name": "",
          "type": "address"
        }
      ],
      "stateMutability": "view",
      "type": "function"
    },
    {
      "inputs": [
        {
          "internalType": "address",
          "name": "owner",
          "type": "address"
        },
        {
          "internalType": "address",
          "name": "operator",
          "type": "address"
        }
      ],
      "name": "isApprovedForAll",
      "outputs": [
        {
          "internalType": "bool",
          "name": "",
          "type": "bool"
        }
      ],
      "stateMutability": "view",
      "type": "function"
    },
    {
      "inputs": [],
      "name": "name",
      "outputs": [
        {
          "internalType": "string",
          "name": "",
          "type": "string"
        }
      ],
      "stateMutability": "view",
      "type": "function"
    },
    {
      "inputs": [],
      "name": "owner",
      "outputs": [
        {
          "internalType": "address",
          "name": "",
          "type": "address"
        }
      ],
      "stateMutability": "view",
      "type": "function"
    },
    {
      "inputs": [
        {
          "internalType": "uint256",
          "name": "tokenId",
          "type": "uint256"
        }
      ],
      "name": "ownerOf",
      "outputs": [
        {
          "internalType": "address",
          "name": "",
          "type": "address"
        }
      ],
      "stateMutability": "view",
      "type": "function"
    },
    {
      "inputs": [
        {
          "internalType": "address",
          "name": "",
          "type": "address"
        },
        {
          "internalType": "uint64",
          "name": "",
          "type": "uint64"
        }
      ],
      "name": "proofs",
      "outputs": [
        {
          "internalType": "bool",
          "name": "",
          "type": "bool"
        }
      ],
      "stateMutability": "view",
      "type": "function"
    },
    {
      "inputs": [],
      "name": "renounceOwnership",
      "outputs": [],
      "stateMutability": "nonpayable",
      "type": "function"
    },
    {
      "inputs": [
        {
          "internalType": "uint64",
          "name": "",
          "type": "uint64"
        }
      ],
      "name": "requestQueries",
      "outputs": [
        {
          "internalType": "uint256",
          "name": "schema",
          "type": "uint256"
        },
        {
          "internalType": "uint256",
          "name": "slotIndex",
          "type": "uint256"
        },
        {
          "internalType": "uint256",
          "name": "operator",
          "type": "uint256"
        },
        {
          "internalType": "string",
          "name": "circuitId",
          "type": "string"
        }
      ],
      "stateMutability": "view",
      "type": "function"
    },
    {
      "inputs": [
        {
          "internalType": "uint64",
          "name": "",
          "type": "uint64"
        }
      ],
      "name": "requestValidators",
      "outputs": [
        {
          "internalType": "contract ICircuitValidator",
          "name": "",
          "type": "address"
        }
      ],
      "stateMutability": "view",
      "type": "function"
    },
    {
      "inputs": [
        {
          "internalType": "address",
          "name": "from",
          "type": "address"
        },
        {
          "internalType": "address",
          "name": "to",
          "type": "address"
        },
        {
          "internalType": "uint256",
          "name": "tokenId",
          "type": "uint256"
        }
      ],
      "name": "safeTransferFrom",
      "outputs": [],
      "stateMutability": "nonpayable",
      "type": "function"
    },
    {
      "inputs": [
        {
          "internalType": "address",
          "name": "from",
          "type": "address"
        },
        {
          "internalType": "address",
          "name": "to",
          "type": "address"
        },
        {
          "internalType": "uint256",
          "name": "tokenId",
          "type": "uint256"
        },
        {
          "internalType": "bytes",
          "name": "data",
          "type": "bytes"
        }
      ],
      "name": "safeTransferFrom",
      "outputs": [],
      "stateMutability": "nonpayable",
      "type": "function"
    },
    {
      "inputs": [
        {
          "internalType": "address",
          "name": "operator",
          "type": "address"
        },
        {
          "internalType": "bool",
          "name": "approved",
          "type": "bool"
        }
      ],
      "name": "setApprovalForAll",
      "outputs": [],
      "stateMutability": "nonpayable",
      "type": "function"
    },
    {
      "inputs": [
        {
          "internalType": "uint64",
          "name": "requestId",
          "type": "uint64"
        },
        {
          "internalType": "contract ICircuitValidator",
          "name": "validator",
          "type": "address"
        },
        {
          "components": [
            {
              "internalType": "uint256",
              "name": "schema",
              "type": "uint256"
            },
            {
              "internalType": "uint256",
              "name": "slotIndex",
              "type": "uint256"
            },
            {
              "internalType": "uint256",
              "name": "operator",
              "type": "uint256"
            },
            {
              "internalType": "uint256[]",
              "name": "value",
              "type": "uint256[]"
            },
            {
              "internalType": "string",
              "name": "circuitId",
              "type": "string"
            }
          ],
          "internalType": "struct ICircuitValidator.CircuitQuery",
          "name": "query",
          "type": "tuple"
        }
      ],
      "name": "setZKPRequest",
      "outputs": [
        {
          "internalType": "bool",
          "name": "",
          "type": "bool"
        }
      ],
      "stateMutability": "nonpayable",
      "type": "function"
    },
    {
      "inputs": [
        {
          "internalType": "uint64",
          "name": "requestId",
          "type": "uint64"
        },
        {
          "internalType": "uint256[]",
          "name": "inputs",
          "type": "uint256[]"
        },
        {
          "internalType": "uint256[2]",
          "name": "a",
          "type": "uint256[2]"
        },
        {
          "internalType": "uint256[2][2]",
          "name": "b",
          "type": "uint256[2][2]"
        },
        {
          "internalType": "uint256[2]",
          "name": "c",
          "type": "uint256[2]"
        }
      ],
      "name": "submitZKPResponse",
      "outputs": [
        {
          "internalType": "bool",
          "name": "",
          "type": "bool"
        }
      ],
      "stateMutability": "nonpayable",
      "type": "function"
    },
    {
      "inputs": [
        {
          "internalType": "uint256",
          "name": "",
          "type": "uint256"
        }
      ],
      "name": "supportedRequests",
      "outputs": [
        {
          "internalType": "uint64",
          "name": "",
          "type": "uint64"
        }
      ],
      "stateMutability": "view",
      "type": "function"
    },
    {
      "inputs": [
        {
          "internalType": "bytes4",
          "name": "interfaceId",
          "type": "bytes4"
        }
      ],
      "name": "supportsInterface",
      "outputs": [
        {
          "internalType": "bool",
          "name": "",
          "type": "bool"
        }
      ],
      "stateMutability": "view",
      "type": "function"
    },
    {
      "inputs": [],
      "name": "symbol",
      "outputs": [
        {
          "internalType": "string",
          "name": "",
          "type": "string"
        }
      ],
      "stateMutability": "view",
      "type": "function"
    },
    {
      "inputs": [
        {
          "internalType": "uint256",
          "name": "tokenId",
          "type": "uint256"
        }
      ],
      "name": "tokenURI",
      "outputs": [
        {
          "internalType": "string",
          "name": "",
          "type": "string"
        }
      ],
      "stateMutability": "view",
      "type": "function"
    },
    {
      "inputs": [],
      "name": "totalSupply",
      "outputs": [
        {
          "internalType": "uint256",
          "name": "",
          "type": "uint256"
        }
      ],
      "stateMutability": "view",
      "type": "function"
    },
    {
      "inputs": [
        {
          "internalType": "address",
          "name": "from",
          "type": "address"
        },
        {
          "internalType": "address",
          "name": "to",
          "type": "address"
        },
        {
          "internalType": "uint256",
          "name": "tokenId",
          "type": "uint256"
        }
      ],
      "name": "transferFrom",
      "outputs": [],
      "stateMutability": "nonpayable",
      "type": "function"
    },
    {
      "inputs": [
        {
          "internalType": "address",
          "name": "newOwner",
          "type": "address"
        }
      ],
      "name": "transferOwnership",
      "outputs": [],
      "stateMutability": "nonpayable",
      "type": "function"
    }
  ],
  "transactionHash": "0x7fc2dfcd0b9f14b62ac39cabc98a32997e90c75d8213dee2075dfeb4356465e7",
  "args": [
    "Mansions MarketPlace",
    "MMP"
  ],
  "numDeployments": 2,
  "solcInputHash": "4568c5f83233f241a5e1a1f669345888",
  "bytecode": "0x60806040523480156200001157600080fd5b5060405162005343380380620053438339818101604052810190620000379190620003e2565b818181600090805190602001906200005192919062000195565b5080600190805190602001906200006a92919062000195565b5050506200008d62000081620000c760201b60201c565b620000cf60201b60201c565b81600b9080519060200190620000a592919062000195565b5080600c9080519060200190620000be92919062000195565b505050620004cc565b600033905090565b6000600660009054906101000a900473ffffffffffffffffffffffffffffffffffffffff16905081600660006101000a81548173ffffffffffffffffffffffffffffffffffffffff021916908373ffffffffffffffffffffffffffffffffffffffff1602179055508173ffffffffffffffffffffffffffffffffffffffff168173ffffffffffffffffffffffffffffffffffffffff167f8be0079c531659141344cd1fd0a4f28419497f9722a3daafe3b4186f6b6457e060405160405180910390a35050565b828054620001a39062000496565b90600052602060002090601f016020900481019282620001c7576000855562000213565b82601f10620001e257805160ff191683800117855562000213565b8280016001018555821562000213579182015b8281111562000212578251825591602001919060010190620001f5565b5b50905062000222919062000226565b5090565b5b808211156200024157600081600090555060010162000227565b5090565b6000604051905090565b600080fd5b600080fd5b600080fd5b600080fd5b6000601f19601f8301169050919050565b7f4e487b7100000000000000000000000000000000000000000000000000000000600052604160045260246000fd5b620002ae8262000263565b810181811067ffffffffffffffff82111715620002d057620002cf62000274565b5b80604052505050565b6000620002e562000245565b9050620002f38282620002a3565b919050565b600067ffffffffffffffff82111562000316576200031562000274565b5b620003218262000263565b9050602081019050919050565b60005b838110156200034e57808201518184015260208101905062000331565b838111156200035e576000848401525b50505050565b60006200037b6200037584620002f8565b620002d9565b9050828152602081018484840111156200039a57620003996200025e565b5b620003a78482856200032e565b509392505050565b600082601f830112620003c757620003c662000259565b5b8151620003d984826020860162000364565b91505092915050565b60008060408385031215620003fc57620003fb6200024f565b5b600083015167ffffffffffffffff8111156200041d576200041c62000254565b5b6200042b85828601620003af565b925050602083015167ffffffffffffffff8111156200044f576200044e62000254565b5b6200045d85828601620003af565b9150509250929050565b7f4e487b7100000000000000000000000000000000000000000000000000000000600052602260045260246000fd5b60006002820490506001821680620004af57607f821691505b60208210811415620004c657620004c562000467565b5b50919050565b614e6780620004dc6000396000f3fe608060405234801561001057600080fd5b50600436106101c45760003560e01c806395d89b41116100f9578063c76d084511610097578063e985e9c511610071578063e985e9c514610556578063f143532614610586578063f2fde38b146105b6578063fee207e6146105d2576101c4565b8063c76d0845146104c6578063c87b56dd146104f6578063cb0e0d7d14610526576101c4565b8063a8723114116100d3578063a87231141461041a578063b45c0fdf1461044a578063b68967e21461047a578063b88d4fde146104aa576101c4565b806395d89b41146103ad57806396bf4741146103cb578063a22cb465146103fe576101c4565b806337ba95231161016657806363ec508f1161014057806363ec508f1461033757806370a0823114610355578063715018a6146103855780638da5cb5b1461038f576101c4565b806337ba9523146102cd57806342842e0e146102eb5780636352211e14610307576101c4565b8063095ea7b3116101a2578063095ea7b31461024757806318160ddd1461026357806323b872dd146102815780632a2d0c471461029d576101c4565b806301ffc9a7146101c957806306fdde03146101f9578063081812fc14610217575b600080fd5b6101e360048036038101906101de9190612edb565b610602565b6040516101f09190612f23565b60405180910390f35b6102016106e4565b60405161020e9190612fd7565b60405180910390f35b610231600480360381019061022c919061302f565b610776565b60405161023e919061309d565b60405180910390f35b610261600480360381019061025c91906130e4565b6107bc565b005b61026b6108d4565b6040516102789190613133565b60405180910390f35b61029b6004803603810190610296919061314e565b6108e5565b005b6102b760048036038101906102b2919061302f565b610945565b6040516102c4919061309d565b60405180910390f35b6102d5610978565b6040516102e29190613273565b60405180910390f35b6103056004803603810190610300919061314e565b610a04565b005b610321600480360381019061031c919061302f565b610a24565b60405161032e919061309d565b60405180910390f35b61033f610aab565b60405161034c91906132a4565b60405180910390f35b61036f600480360381019061036a91906132bf565b610ab0565b60405161037c9190613133565b60405180910390f35b61038d610b68565b005b610397610b7c565b6040516103a4919061309d565b60405180910390f35b6103b5610ba6565b6040516103c29190612fd7565b60405180910390f35b6103e560048036038101906103e09190613318565b610c38565b6040516103f59493929190613345565b60405180910390f35b610418600480360381019061041391906133bd565b610cf0565b005b610434600480360381019061042f9190613318565b610d06565b604051610441919061345c565b60405180910390f35b610464600480360381019061045f9190613477565b610d39565b6040516104719190612f23565b60405180910390f35b610494600480360381019061048f9190613761565b610d68565b6040516104a19190612f23565b60405180910390f35b6104c460048036038101906104bf91906138af565b6110f9565b005b6104e060048036038101906104db9190613318565b61115b565b6040516104ed9190613ab7565b60405180910390f35b610510600480360381019061050b919061302f565b6112a4565b60405161051d9190612fd7565b60405180910390f35b610540600480360381019061053b91906132bf565b61130c565b60405161054d9190613133565b60405180910390f35b610570600480360381019061056b9190613ad9565b611324565b60405161057d9190612f23565b60405180910390f35b6105a0600480360381019061059b919061302f565b6113b8565b6040516105ad91906132a4565b60405180910390f35b6105d060048036038101906105cb91906132bf565b6113f6565b005b6105ec60048036038101906105e79190613cc6565b61147a565b6040516105f99190612f23565b60405180910390f35b60007f80ac58cd000000000000000000000000000000000000000000000000000000007bffffffffffffffffffffffffffffffffffffffffffffffffffffffff1916827bffffffffffffffffffffffffffffffffffffffffffffffffffffffff191614806106cd57507f5b5e139f000000000000000000000000000000000000000000000000000000007bffffffffffffffffffffffffffffffffffffffffffffffffffffffff1916827bffffffffffffffffffffffffffffffffffffffffffffffffffffffff1916145b806106dd57506106dc8261172a565b5b9050919050565b6060600080546106f390613d64565b80601f016020809104026020016040519081016040528092919081815260200182805461071f90613d64565b801561076c5780601f106107415761010080835404028352916020019161076c565b820191906000526020600020905b81548152906001019060200180831161074f57829003601f168201915b5050505050905090565b600061078182611794565b6004600083815260200190815260200160002060009054906101000a900473ffffffffffffffffffffffffffffffffffffffff169050919050565b60006107c782610a24565b90508073ffffffffffffffffffffffffffffffffffffffff168373ffffffffffffffffffffffffffffffffffffffff161415610838576040517f08c379a000000000000000000000000000000000000000000000000000000000815260040161082f90613e08565b60405180910390fd5b8073ffffffffffffffffffffffffffffffffffffffff166108576117df565b73ffffffffffffffffffffffffffffffffffffffff1614806108865750610885816108806117df565b611324565b5b6108c5576040517f08c379a00000000000000000000000000000000000000000000000000000000081526004016108bc90613e9a565b60405180910390fd5b6108cf83836117e7565b505050565b60006108e0600f6118a0565b905090565b6108f66108f06117df565b826118ae565b610935576040517f08c379a000000000000000000000000000000000000000000000000000000000815260040161092c90613f2c565b60405180910390fd5b610940838383611943565b505050565b600d6020528060005260406000206000915054906101000a900473ffffffffffffffffffffffffffffffffffffffff1681565b6060600a8054806020026020016040519081016040528092919081815260200182805480156109fa57602002820191906000526020600020906000905b82829054906101000a900467ffffffffffffffff1667ffffffffffffffff16815260200190600801906020826007010492830192600103820291508084116109b55790505b5050505050905090565b610a1f838383604051806020016040528060008152506110f9565b505050565b600080610a3083611c3d565b9050600073ffffffffffffffffffffffffffffffffffffffff168173ffffffffffffffffffffffffffffffffffffffff161415610aa2576040517f08c379a0000000000000000000000000000000000000000000000000000000008152600401610a9990613f98565b60405180910390fd5b80915050919050565b600181565b60008073ffffffffffffffffffffffffffffffffffffffff168273ffffffffffffffffffffffffffffffffffffffff161415610b21576040517f08c379a0000000000000000000000000000000000000000000000000000000008152600401610b189061402a565b60405180910390fd5b600360008373ffffffffffffffffffffffffffffffffffffffff1673ffffffffffffffffffffffffffffffffffffffff168152602001908152602001600020549050919050565b610b70611c7a565b610b7a6000611cf8565b565b6000600660009054906101000a900473ffffffffffffffffffffffffffffffffffffffff16905090565b606060018054610bb590613d64565b80601f0160208091040260200160405190810160405280929190818152602001828054610be190613d64565b8015610c2e5780601f10610c0357610100808354040283529160200191610c2e565b820191906000526020600020905b815481529060010190602001808311610c1157829003601f168201915b5050505050905090565b6008602052806000526040600020600091509050806000015490806001015490806002015490806004018054610c6d90613d64565b80601f0160208091040260200160405190810160405280929190818152602001828054610c9990613d64565b8015610ce65780601f10610cbb57610100808354040283529160200191610ce6565b820191906000526020600020905b815481529060010190602001808311610cc957829003601f168201915b5050505050905084565b610d02610cfb6117df565b8383611dbe565b5050565b60096020528060005260406000206000915054906101000a900473ffffffffffffffffffffffffffffffffffffffff1681565b60076020528160005260406000206020528060005260406000206000915091509054906101000a900460ff1681565b60008073ffffffffffffffffffffffffffffffffffffffff16600960008867ffffffffffffffff1667ffffffffffffffff16815260200190815260200160002060009054906101000a900473ffffffffffffffffffffffffffffffffffffffff1673ffffffffffffffffffffffffffffffffffffffff161415610e20576040517f08c379a0000000000000000000000000000000000000000000000000000000008152600401610e17906140bc565b60405180910390fd5b6000600860008867ffffffffffffffff1667ffffffffffffffff168152602001908152602001600020600001541415610e8e576040517f08c379a0000000000000000000000000000000000000000000000000000000008152600401610e859061414e565b60405180910390fd5b610ee08686600960008a67ffffffffffffffff1667ffffffffffffffff16815260200190815260200160002060009054906101000a900473ffffffffffffffffffffffffffffffffffffffff16611f2b565b600960008767ffffffffffffffff1667ffffffffffffffff16815260200190815260200160002060009054906101000a900473ffffffffffffffffffffffffffffffffffffffff1673ffffffffffffffffffffffffffffffffffffffff166367e1d50486868686600860008d67ffffffffffffffff1667ffffffffffffffff1681526020019081526020016000206040518663ffffffff1660e01b8152600401610f8e959493929190614568565b60206040518083038186803b158015610fa657600080fd5b505afa158015610fba573d6000803e3d6000fd5b505050506040513d601f19601f82011682018060405250810190610fde91906145e0565b61101d576040517f08c379a000000000000000000000000000000000000000000000000000000000815260040161101490614659565b60405180910390fd5b6001600760003373ffffffffffffffffffffffffffffffffffffffff1673ffffffffffffffffffffffffffffffffffffffff16815260200190815260200160002060008867ffffffffffffffff1667ffffffffffffffff16815260200190815260200160002060006101000a81548160ff0219169083151502179055506110ec8686600960008a67ffffffffffffffff1667ffffffffffffffff16815260200190815260200160002060009054906101000a900473ffffffffffffffffffffffffffffffffffffffff1661204a565b6001905095945050505050565b61110a6111046117df565b836118ae565b611149576040517f08c379a000000000000000000000000000000000000000000000000000000000815260040161114090613f2c565b60405180910390fd5b61115584848484612305565b50505050565b611163612d50565b600860008367ffffffffffffffff1667ffffffffffffffff1681526020019081526020016000206040518060a00160405290816000820154815260200160018201548152602001600282015481526020016003820180548060200260200160405190810160405280929190818152602001828054801561120257602002820191906000526020600020905b8154815260200190600101908083116111ee575b5050505050815260200160048201805461121b90613d64565b80601f016020809104026020016040519081016040528092919081815260200182805461124790613d64565b80156112945780601f1061126957610100808354040283529160200191611294565b820191906000526020600020905b81548152906001019060200180831161127757829003601f168201915b5050505050815250509050919050565b60606112af82611794565b60006112b9612361565b905060008151116112d95760405180602001604052806000815250611304565b806112e384612378565b6040516020016112f49291906146b5565b6040516020818303038152906040525b915050919050565b600e6020528060005260406000206000915090505481565b6000600560008473ffffffffffffffffffffffffffffffffffffffff1673ffffffffffffffffffffffffffffffffffffffff16815260200190815260200160002060008373ffffffffffffffffffffffffffffffffffffffff1673ffffffffffffffffffffffffffffffffffffffff16815260200190815260200160002060009054906101000a900460ff16905092915050565b600a81815481106113c857600080fd5b9060005260206000209060049182820401919006600802915054906101000a900467ffffffffffffffff1681565b6113fe611c7a565b600073ffffffffffffffffffffffffffffffffffffffff168173ffffffffffffffffffffffffffffffffffffffff16141561146e576040517f08c379a00000000000000000000000000000000000000000000000000000000081526004016114659061474b565b60405180910390fd5b61147781611cf8565b50565b6000611484611c7a565b600073ffffffffffffffffffffffffffffffffffffffff16600960008667ffffffffffffffff1667ffffffffffffffff16815260200190815260200160002060009054906101000a900473ffffffffffffffffffffffffffffffffffffffff1673ffffffffffffffffffffffffffffffffffffffff16141561155757600a8490806001815401808255809150506001900390600052602060002090600491828204019190066008029091909190916101000a81548167ffffffffffffffff021916908367ffffffffffffffff1602179055505b8160600151600860008667ffffffffffffffff1667ffffffffffffffff1681526020019081526020016000206003019080519060200190611599929190612d7f565b508160400151600860008667ffffffffffffffff1667ffffffffffffffff168152602001908152602001600020600201819055508160800151600860008667ffffffffffffffff1667ffffffffffffffff168152602001908152602001600020600401908051906020019061160f929190612dcc565b508160200151600860008667ffffffffffffffff1667ffffffffffffffff168152602001908152602001600020600101819055508160000151600860008667ffffffffffffffff1667ffffffffffffffff168152602001908152602001600020600001819055508160800151600860008667ffffffffffffffff1667ffffffffffffffff16815260200190815260200160002060040190805190602001906116b8929190612dcc565b5082600960008667ffffffffffffffff1667ffffffffffffffff16815260200190815260200160002060006101000a81548173ffffffffffffffffffffffffffffffffffffffff021916908373ffffffffffffffffffffffffffffffffffffffff160217905550600190509392505050565b60007f01ffc9a7000000000000000000000000000000000000000000000000000000007bffffffffffffffffffffffffffffffffffffffffffffffffffffffff1916827bffffffffffffffffffffffffffffffffffffffffffffffffffffffff1916149050919050565b61179d81612450565b6117dc576040517f08c379a00000000000000000000000000000000000000000000000000000000081526004016117d390613f98565b60405180910390fd5b50565b600033905090565b816004600083815260200190815260200160002060006101000a81548173ffffffffffffffffffffffffffffffffffffffff021916908373ffffffffffffffffffffffffffffffffffffffff160217905550808273ffffffffffffffffffffffffffffffffffffffff1661185a83610a24565b73ffffffffffffffffffffffffffffffffffffffff167f8c5be1e5ebec7d5bd14f71427d1e84f3dd0314c0f7b2291e5b200ac8c7c3b92560405160405180910390a45050565b600081600001549050919050565b6000806118ba83610a24565b90508073ffffffffffffffffffffffffffffffffffffffff168473ffffffffffffffffffffffffffffffffffffffff1614806118fc57506118fb8185611324565b5b8061193a57508373ffffffffffffffffffffffffffffffffffffffff1661192284610776565b73ffffffffffffffffffffffffffffffffffffffff16145b91505092915050565b8273ffffffffffffffffffffffffffffffffffffffff1661196382610a24565b73ffffffffffffffffffffffffffffffffffffffff16146119b9576040517f08c379a00000000000000000000000000000000000000000000000000000000081526004016119b0906147dd565b60405180910390fd5b600073ffffffffffffffffffffffffffffffffffffffff168273ffffffffffffffffffffffffffffffffffffffff161415611a29576040517f08c379a0000000000000000000000000000000000000000000000000000000008152600401611a209061486f565b60405180910390fd5b611a368383836001612491565b8273ffffffffffffffffffffffffffffffffffffffff16611a5682610a24565b73ffffffffffffffffffffffffffffffffffffffff1614611aac576040517f08c379a0000000000000000000000000000000000000000000000000000000008152600401611aa3906147dd565b60405180910390fd5b6004600082815260200190815260200160002060006101000a81549073ffffffffffffffffffffffffffffffffffffffff02191690556001600360008573ffffffffffffffffffffffffffffffffffffffff1673ffffffffffffffffffffffffffffffffffffffff168152602001908152602001600020600082825403925050819055506001600360008473ffffffffffffffffffffffffffffffffffffffff1673ffffffffffffffffffffffffffffffffffffffff16815260200190815260200160002060008282540192505081905550816002600083815260200190815260200160002060006101000a81548173ffffffffffffffffffffffffffffffffffffffff021916908373ffffffffffffffffffffffffffffffffffffffff160217905550808273ffffffffffffffffffffffffffffffffffffffff168473ffffffffffffffffffffffffffffffffffffffff167fddf252ad1be2c89b69c2b068fc378daa952ba7f163c4a11628f55a4df523b3ef60405160405180910390a4611c3883838360016125b7565b505050565b60006002600083815260200190815260200160002060009054906101000a900473ffffffffffffffffffffffffffffffffffffffff169050919050565b611c826117df565b73ffffffffffffffffffffffffffffffffffffffff16611ca0610b7c565b73ffffffffffffffffffffffffffffffffffffffff1614611cf6576040517f08c379a0000000000000000000000000000000000000000000000000000000008152600401611ced906148db565b60405180910390fd5b565b6000600660009054906101000a900473ffffffffffffffffffffffffffffffffffffffff16905081600660006101000a81548173ffffffffffffffffffffffffffffffffffffffff021916908373ffffffffffffffffffffffffffffffffffffffff1602179055508173ffffffffffffffffffffffffffffffffffffffff168173ffffffffffffffffffffffffffffffffffffffff167f8be0079c531659141344cd1fd0a4f28419497f9722a3daafe3b4186f6b6457e060405160405180910390a35050565b8173ffffffffffffffffffffffffffffffffffffffff168373ffffffffffffffffffffffffffffffffffffffff161415611e2d576040517f08c379a0000000000000000000000000000000000000000000000000000000008152600401611e2490614947565b60405180910390fd5b80600560008573ffffffffffffffffffffffffffffffffffffffff1673ffffffffffffffffffffffffffffffffffffffff16815260200190815260200160002060008473ffffffffffffffffffffffffffffffffffffffff1673ffffffffffffffffffffffffffffffffffffffff16815260200190815260200160002060006101000a81548160ff0219169083151502179055508173ffffffffffffffffffffffffffffffffffffffff168373ffffffffffffffffffffffffffffffffffffffff167f17307eab39ab6107e8899845ad3d59bd9653f200f220920489ca2b5937696c3183604051611f1e9190612f23565b60405180910390a3505050565b6000611fcd838373ffffffffffffffffffffffffffffffffffffffff16639f442afa6040518163ffffffff1660e01b815260040160206040518083038186803b158015611f7757600080fd5b505afa158015611f8b573d6000803e3d6000fd5b505050506040513d601f19601f82011682018060405250810190611faf919061497c565b81518110611fc057611fbf6149a9565b5b60200260200101516125bd565b90508073ffffffffffffffffffffffffffffffffffffffff16611fee6117df565b73ffffffffffffffffffffffffffffffffffffffff1614612044576040517f08c379a000000000000000000000000000000000000000000000000000000000815260040161203b90614a4a565b60405180910390fd5b50505050565b600167ffffffffffffffff168367ffffffffffffffff161480156120b457506000600e60006120776117df565b73ffffffffffffffffffffffffffffffffffffffff1673ffffffffffffffffffffffffffffffffffffffff16815260200190815260200160002054145b6120f3576040517f08c379a00000000000000000000000000000000000000000000000000000000081526004016120ea90614adc565b60405180910390fd5b6000828273ffffffffffffffffffffffffffffffffffffffff16639f442afa6040518163ffffffff1660e01b815260040160206040518083038186803b15801561213c57600080fd5b505afa158015612150573d6000803e3d6000fd5b505050506040513d601f19601f82011682018060405250810190612174919061497c565b81518110612185576121846149a9565b5b60200260200101519050600073ffffffffffffffffffffffffffffffffffffffff16600d600083815260200190815260200160002060009054906101000a900473ffffffffffffffffffffffffffffffffffffffff1673ffffffffffffffffffffffffffffffffffffffff1614156122ff576000612203600f6118a0565b905061220f600f6125df565b61222061221a6117df565b826125f5565b81600e600061222d6117df565b73ffffffffffffffffffffffffffffffffffffffff1673ffffffffffffffffffffffffffffffffffffffff168152602001908152602001600020819055506122736117df565b600d600084815260200190815260200160002060006101000a81548173ffffffffffffffffffffffffffffffffffffffff021916908373ffffffffffffffffffffffffffffffffffffffff160217905550807fab9c938bed27c307f7cd7005eb4c8dee99941e98f33f700d353caf6a95a117f360016040516122f591906132a4565b60405180910390a2505b50505050565b612310848484611943565b61231c84848484612613565b61235b576040517f08c379a000000000000000000000000000000000000000000000000000000000815260040161235290614b6e565b60405180910390fd5b50505050565b606060405180602001604052806000815250905090565b606060006001612387846127aa565b01905060008167ffffffffffffffff8111156123a6576123a56134bc565b5b6040519080825280601f01601f1916602001820160405280156123d85781602001600182028036833780820191505090505b509050600082602001820190505b600115612445578080600190039150507f3031323334353637383961626364656600000000000000000000000000000000600a86061a8153600a858161242f5761242e614b8e565b5b049450600085141561244057612445565b6123e6565b819350505050919050565b60008073ffffffffffffffffffffffffffffffffffffffff1661247283611c3d565b73ffffffffffffffffffffffffffffffffffffffff1614159050919050565b60018111156125b157600073ffffffffffffffffffffffffffffffffffffffff168473ffffffffffffffffffffffffffffffffffffffff16146125255780600360008673ffffffffffffffffffffffffffffffffffffffff1673ffffffffffffffffffffffffffffffffffffffff168152602001908152602001600020600082825461251d9190614bec565b925050819055505b600073ffffffffffffffffffffffffffffffffffffffff168373ffffffffffffffffffffffffffffffffffffffff16146125b05780600360008573ffffffffffffffffffffffffffffffffffffffff1673ffffffffffffffffffffffffffffffffffffffff16815260200190815260200160002060008282546125a89190614c20565b925050819055505b5b50505050565b50505050565b60006125d86125d36125ce846128fd565b612a49565b612aa6565b9050919050565b6001816000016000828254019250508190555050565b61260f828260405180602001604052806000815250612ab4565b5050565b60006126348473ffffffffffffffffffffffffffffffffffffffff16612b0f565b1561279d578373ffffffffffffffffffffffffffffffffffffffff1663150b7a0261265d6117df565b8786866040518563ffffffff1660e01b815260040161267f9493929190614ccb565b602060405180830381600087803b15801561269957600080fd5b505af19250505080156126ca57506040513d601f19601f820116820180604052508101906126c79190614d2c565b60015b61274d573d80600081146126fa576040519150601f19603f3d011682016040523d82523d6000602084013e6126ff565b606091505b50600081511415612745576040517f08c379a000000000000000000000000000000000000000000000000000000000815260040161273c90614b6e565b60405180910390fd5b805181602001fd5b63150b7a0260e01b7bffffffffffffffffffffffffffffffffffffffffffffffffffffffff1916817bffffffffffffffffffffffffffffffffffffffffffffffffffffffff1916149150506127a2565b600190505b949350505050565b600080600090507a184f03e93ff9f4daa797ed6e38ed64bf6a1f0100000000000000008310612808577a184f03e93ff9f4daa797ed6e38ed64bf6a1f01000000000000000083816127fe576127fd614b8e565b5b0492506040810190505b6d04ee2d6d415b85acef81000000008310612845576d04ee2d6d415b85acef8100000000838161283b5761283a614b8e565b5b0492506020810190505b662386f26fc10000831061287457662386f26fc10000838161286a57612869614b8e565b5b0492506010810190505b6305f5e100831061289d576305f5e100838161289357612892614b8e565b5b0492506008810190505b61271083106128c25761271083816128b8576128b7614b8e565b5b0492506004810190505b606483106128e557606483816128db576128da614b8e565b5b0492506002810190505b600a83106128f4576001810190505b80915050919050565b600081905060087eff00ff00ff00ff00ff00ff00ff00ff00ff00ff00ff00ff00ff00ff00ff00ff8216901b60087fff00ff00ff00ff00ff00ff00ff00ff00ff00ff00ff00ff00ff00ff00ff00ff008316901c17905060107dffff0000ffff0000ffff0000ffff0000ffff0000ffff0000ffff0000ffff8216901b60107fffff0000ffff0000ffff0000ffff0000ffff0000ffff0000ffff0000ffff00008316901c17905060207bffffffff00000000ffffffff00000000ffffffff00000000ffffffff8216901b60207fffffffff00000000ffffffff00000000ffffffff00000000ffffffff000000008316901c179050604077ffffffffffffffff0000000000000000ffffffffffffffff8216901b60407fffffffffffffffff0000000000000000ffffffffffffffff00000000000000008316901c179050608081901b608082901c179050919050565b6060602067ffffffffffffffff811115612a6657612a656134bc565b5b6040519080825280601f01601f191660200182016040528015612a985781602001600182028036833780820191505090505b509050816020820152919050565b600060148201519050919050565b612abe8383612b32565b612acb6000848484612613565b612b0a576040517f08c379a0000000000000000000000000000000000000000000000000000000008152600401612b0190614b6e565b60405180910390fd5b505050565b6000808273ffffffffffffffffffffffffffffffffffffffff163b119050919050565b600073ffffffffffffffffffffffffffffffffffffffff168273ffffffffffffffffffffffffffffffffffffffff161415612ba2576040517f08c379a0000000000000000000000000000000000000000000000000000000008152600401612b9990614da5565b60405180910390fd5b612bab81612450565b15612beb576040517f08c379a0000000000000000000000000000000000000000000000000000000008152600401612be290614e11565b60405180910390fd5b612bf9600083836001612491565b612c0281612450565b15612c42576040517f08c379a0000000000000000000000000000000000000000000000000000000008152600401612c3990614e11565b60405180910390fd5b6001600360008473ffffffffffffffffffffffffffffffffffffffff1673ffffffffffffffffffffffffffffffffffffffff16815260200190815260200160002060008282540192505081905550816002600083815260200190815260200160002060006101000a81548173ffffffffffffffffffffffffffffffffffffffff021916908373ffffffffffffffffffffffffffffffffffffffff160217905550808273ffffffffffffffffffffffffffffffffffffffff16600073ffffffffffffffffffffffffffffffffffffffff167fddf252ad1be2c89b69c2b068fc378daa952ba7f163c4a11628f55a4df523b3ef60405160405180910390a4612d4c6000838360016125b7565b5050565b6040518060a0016040528060008152602001600081526020016000815260200160608152602001606081525090565b828054828255906000526020600020908101928215612dbb579160200282015b82811115612dba578251825591602001919060010190612d9f565b5b509050612dc89190612e52565b5090565b828054612dd890613d64565b90600052602060002090601f016020900481019282612dfa5760008555612e41565b82601f10612e1357805160ff1916838001178555612e41565b82800160010185558215612e41579182015b82811115612e40578251825591602001919060010190612e25565b5b509050612e4e9190612e52565b5090565b5b80821115612e6b576000816000905550600101612e53565b5090565b6000604051905090565b600080fd5b600080fd5b60007fffffffff0000000000000000000000000000000000000000000000000000000082169050919050565b612eb881612e83565b8114612ec357600080fd5b50565b600081359050612ed581612eaf565b92915050565b600060208284031215612ef157612ef0612e79565b5b6000612eff84828501612ec6565b91505092915050565b60008115159050919050565b612f1d81612f08565b82525050565b6000602082019050612f386000830184612f14565b92915050565b600081519050919050565b600082825260208201905092915050565b60005b83811015612f78578082015181840152602081019050612f5d565b83811115612f87576000848401525b50505050565b6000601f19601f8301169050919050565b6000612fa982612f3e565b612fb38185612f49565b9350612fc3818560208601612f5a565b612fcc81612f8d565b840191505092915050565b60006020820190508181036000830152612ff18184612f9e565b905092915050565b6000819050919050565b61300c81612ff9565b811461301757600080fd5b50565b60008135905061302981613003565b92915050565b60006020828403121561304557613044612e79565b5b60006130538482850161301a565b91505092915050565b600073ffffffffffffffffffffffffffffffffffffffff82169050919050565b60006130878261305c565b9050919050565b6130978161307c565b82525050565b60006020820190506130b2600083018461308e565b92915050565b6130c18161307c565b81146130cc57600080fd5b50565b6000813590506130de816130b8565b92915050565b600080604083850312156130fb576130fa612e79565b5b6000613109858286016130cf565b925050602061311a8582860161301a565b9150509250929050565b61312d81612ff9565b82525050565b60006020820190506131486000830184613124565b92915050565b60008060006060848603121561316757613166612e79565b5b6000613175868287016130cf565b9350506020613186868287016130cf565b92505060406131978682870161301a565b9150509250925092565b600081519050919050565b600082825260208201905092915050565b6000819050602082019050919050565b600067ffffffffffffffff82169050919050565b6131ea816131cd565b82525050565b60006131fc83836131e1565b60208301905092915050565b6000602082019050919050565b6000613220826131a1565b61322a81856131ac565b9350613235836131bd565b8060005b8381101561326657815161324d88826131f0565b975061325883613208565b925050600181019050613239565b5085935050505092915050565b6000602082019050818103600083015261328d8184613215565b905092915050565b61329e816131cd565b82525050565b60006020820190506132b96000830184613295565b92915050565b6000602082840312156132d5576132d4612e79565b5b60006132e3848285016130cf565b91505092915050565b6132f5816131cd565b811461330057600080fd5b50565b600081359050613312816132ec565b92915050565b60006020828403121561332e5761332d612e79565b5b600061333c84828501613303565b91505092915050565b600060808201905061335a6000830187613124565b6133676020830186613124565b6133746040830185613124565b81810360608301526133868184612f9e565b905095945050505050565b61339a81612f08565b81146133a557600080fd5b50565b6000813590506133b781613391565b92915050565b600080604083850312156133d4576133d3612e79565b5b60006133e2858286016130cf565b92505060206133f3858286016133a8565b9150509250929050565b6000819050919050565b600061342261341d6134188461305c565b6133fd565b61305c565b9050919050565b600061343482613407565b9050919050565b600061344682613429565b9050919050565b6134568161343b565b82525050565b6000602082019050613471600083018461344d565b92915050565b6000806040838503121561348e5761348d612e79565b5b600061349c858286016130cf565b92505060206134ad85828601613303565b9150509250929050565b600080fd5b7f4e487b7100000000000000000000000000000000000000000000000000000000600052604160045260246000fd5b6134f482612f8d565b810181811067ffffffffffffffff82111715613513576135126134bc565b5b80604052505050565b6000613526612e6f565b905061353282826134eb565b919050565b600067ffffffffffffffff821115613552576135516134bc565b5b602082029050602081019050919050565b600080fd5b600061357b61357684613537565b61351c565b9050808382526020820190506020840283018581111561359e5761359d613563565b5b835b818110156135c757806135b3888261301a565b8452602084019350506020810190506135a0565b5050509392505050565b600082601f8301126135e6576135e56134b7565b5b81356135f6848260208601613568565b91505092915050565b600067ffffffffffffffff82111561361a576136196134bc565b5b602082029050919050565b6000613638613633846135ff565b61351c565b9050806020840283018581111561365257613651613563565b5b835b8181101561367b5780613667888261301a565b845260208401935050602081019050613654565b5050509392505050565b600082601f83011261369a576136996134b7565b5b60026136a7848285613625565b91505092915050565b600067ffffffffffffffff8211156136cb576136ca6134bc565b5b602082029050919050565b60006136e96136e4846136b0565b61351c565b9050806040840283018581111561370357613702613563565b5b835b8181101561372c57806137188882613685565b845260208401935050604081019050613705565b5050509392505050565b600082601f83011261374b5761374a6134b7565b5b60026137588482856136d6565b91505092915050565b6000806000806000610140868803121561377e5761377d612e79565b5b600061378c88828901613303565b955050602086013567ffffffffffffffff8111156137ad576137ac612e7e565b5b6137b9888289016135d1565b94505060406137ca88828901613685565b93505060806137db88828901613736565b9250506101006137ed88828901613685565b9150509295509295909350565b600080fd5b600067ffffffffffffffff82111561381a576138196134bc565b5b61382382612f8d565b9050602081019050919050565b82818337600083830152505050565b600061385261384d846137ff565b61351c565b90508281526020810184848401111561386e5761386d6137fa565b5b613879848285613830565b509392505050565b600082601f830112613896576138956134b7565b5b81356138a684826020860161383f565b91505092915050565b600080600080608085870312156138c9576138c8612e79565b5b60006138d7878288016130cf565b94505060206138e8878288016130cf565b93505060406138f98782880161301a565b925050606085013567ffffffffffffffff81111561391a57613919612e7e565b5b61392687828801613881565b91505092959194509250565b61393b81612ff9565b82525050565b600081519050919050565b600082825260208201905092915050565b6000819050602082019050919050565b60006139798383613932565b60208301905092915050565b6000602082019050919050565b600061399d82613941565b6139a7818561394c565b93506139b28361395d565b8060005b838110156139e35781516139ca888261396d565b97506139d583613985565b9250506001810190506139b6565b5085935050505092915050565b600082825260208201905092915050565b6000613a0c82612f3e565b613a1681856139f0565b9350613a26818560208601612f5a565b613a2f81612f8d565b840191505092915050565b600060a083016000830151613a526000860182613932565b506020830151613a656020860182613932565b506040830151613a786040860182613932565b5060608301518482036060860152613a908282613992565b91505060808301518482036080860152613aaa8282613a01565b9150508091505092915050565b60006020820190508181036000830152613ad18184613a3a565b905092915050565b60008060408385031215613af057613aef612e79565b5b6000613afe858286016130cf565b9250506020613b0f858286016130cf565b9150509250929050565b6000613b248261307c565b9050919050565b613b3481613b19565b8114613b3f57600080fd5b50565b600081359050613b5181613b2b565b92915050565b600080fd5b600080fd5b600067ffffffffffffffff821115613b7c57613b7b6134bc565b5b613b8582612f8d565b9050602081019050919050565b6000613ba5613ba084613b61565b61351c565b905082815260208101848484011115613bc157613bc06137fa565b5b613bcc848285613830565b509392505050565b600082601f830112613be957613be86134b7565b5b8135613bf9848260208601613b92565b91505092915050565b600060a08284031215613c1857613c17613b57565b5b613c2260a061351c565b90506000613c328482850161301a565b6000830152506020613c468482850161301a565b6020830152506040613c5a8482850161301a565b604083015250606082013567ffffffffffffffff811115613c7e57613c7d613b5c565b5b613c8a848285016135d1565b606083015250608082013567ffffffffffffffff811115613cae57613cad613b5c565b5b613cba84828501613bd4565b60808301525092915050565b600080600060608486031215613cdf57613cde612e79565b5b6000613ced86828701613303565b9350506020613cfe86828701613b42565b925050604084013567ffffffffffffffff811115613d1f57613d1e612e7e565b5b613d2b86828701613c02565b9150509250925092565b7f4e487b7100000000000000000000000000000000000000000000000000000000600052602260045260246000fd5b60006002820490506001821680613d7c57607f821691505b60208210811415613d9057613d8f613d35565b5b50919050565b7f4552433732313a20617070726f76616c20746f2063757272656e74206f776e6560008201527f7200000000000000000000000000000000000000000000000000000000000000602082015250565b6000613df2602183612f49565b9150613dfd82613d96565b604082019050919050565b60006020820190508181036000830152613e2181613de5565b9050919050565b7f4552433732313a20617070726f76652063616c6c6572206973206e6f7420746f60008201527f6b656e206f776e6572206f7220617070726f76656420666f7220616c6c000000602082015250565b6000613e84603d83612f49565b9150613e8f82613e28565b604082019050919050565b60006020820190508181036000830152613eb381613e77565b9050919050565b7f4552433732313a2063616c6c6572206973206e6f7420746f6b656e206f776e6560008201527f72206f7220617070726f76656400000000000000000000000000000000000000602082015250565b6000613f16602d83612f49565b9150613f2182613eba565b604082019050919050565b60006020820190508181036000830152613f4581613f09565b9050919050565b7f4552433732313a20696e76616c696420746f6b656e2049440000000000000000600082015250565b6000613f82601883612f49565b9150613f8d82613f4c565b602082019050919050565b60006020820190508181036000830152613fb181613f75565b9050919050565b7f4552433732313a2061646472657373207a65726f206973206e6f74206120766160008201527f6c6964206f776e65720000000000000000000000000000000000000000000000602082015250565b6000614014602983612f49565b915061401f82613fb8565b604082019050919050565b6000602082019050818103600083015261404381614007565b9050919050565b7f76616c696461746f72206973206e6f742073657420666f72207468697320726560008201527f7175657374206964000000000000000000000000000000000000000000000000602082015250565b60006140a6602883612f49565b91506140b18261404a565b604082019050919050565b600060208201905081810360008301526140d581614099565b9050919050565b7f7175657279206973206e6f742073657420666f7220746869732072657175657360008201527f7420696400000000000000000000000000000000000000000000000000000000602082015250565b6000614138602483612f49565b9150614143826140dc565b604082019050919050565b600060208201905081810360008301526141678161412b565b9050919050565b600082825260208201905092915050565b600061418a82613941565b614194818561416e565b935061419f8361395d565b8060005b838110156141d05781516141b7888261396d565b97506141c283613985565b9250506001810190506141a3565b5085935050505092915050565b600060029050919050565b600081905092915050565b6000819050919050565b6000602082019050919050565b614213816141dd565b61421d81846141e8565b9250614228826141f3565b8060005b83811015614259578151614240878261396d565b965061424b836141fd565b92505060018101905061422c565b505050505050565b600060029050919050565b600081905092915050565b6000819050919050565b600081905092915050565b614295816141dd565b61429f8184614281565b92506142aa826141f3565b8060005b838110156142db5781516142c2878261396d565b96506142cd836141fd565b9250506001810190506142ae565b505050505050565b60006142ef838361428c565b60408301905092915050565b6000602082019050919050565b61431181614261565b61431b818461426c565b925061432682614277565b8060005b8381101561435757815161433e87826142e3565b9650614349836142fb565b92505060018101905061432a565b505050505050565b60008160001c9050919050565b6000819050919050565b60006143896143848361435f565b61436c565b9050919050565b600081549050919050565b60008190508160005260206000209050919050565b60006143bc8254614376565b9050919050565b6000600182019050919050565b60006143db82614390565b6143e5818561394c565b93506143f08361439b565b8060005b8381101561442857614405826143b0565b61440f888261396d565b975061441a836143c3565b9250506001810190506143f4565b5085935050505092915050565b60008190508160005260206000209050919050565b6000815461445781613d64565b61446181866139f0565b9450600182166000811461447c576001811461448e576144c1565b60ff19831686526020860193506144c1565b61449785614435565b60005b838110156144b95781548189015260018201915060208101905061449a565b808801955050505b50505092915050565b600060a0830160008084015490506144e181614376565b6144ee6000870182613932565b50600184015490506144ff81614376565b61450c6020870182613932565b506002840154905061451d81614376565b61452a6040870182613932565b5060038401858303606087015261454183826143d0565b92505060048401858303608087015261455a838261444a565b925050819250505092915050565b6000610140820190508181036000830152614583818861417f565b9050614592602083018761420a565b61459f6060830186614308565b6145ac60e083018561420a565b8181036101208301526145bf81846144ca565b90509695505050505050565b6000815190506145da81613391565b92915050565b6000602082840312156145f6576145f5612e79565b5b6000614604848285016145cb565b91505092915050565b7f70726f6f6620726573706f6e7365206973206e6f742076616c69640000000000600082015250565b6000614643601b83612f49565b915061464e8261460d565b602082019050919050565b6000602082019050818103600083015261467281614636565b9050919050565b600081905092915050565b600061468f82612f3e565b6146998185614679565b93506146a9818560208601612f5a565b80840191505092915050565b60006146c18285614684565b91506146cd8284614684565b91508190509392505050565b7f4f776e61626c653a206e6577206f776e657220697320746865207a65726f206160008201527f6464726573730000000000000000000000000000000000000000000000000000602082015250565b6000614735602683612f49565b9150614740826146d9565b604082019050919050565b6000602082019050818103600083015261476481614728565b9050919050565b7f4552433732313a207472616e736665722066726f6d20696e636f72726563742060008201527f6f776e6572000000000000000000000000000000000000000000000000000000602082015250565b60006147c7602583612f49565b91506147d28261476b565b604082019050919050565b600060208201905081810360008301526147f6816147ba565b9050919050565b7f4552433732313a207472616e7366657220746f20746865207a65726f2061646460008201527f7265737300000000000000000000000000000000000000000000000000000000602082015250565b6000614859602483612f49565b9150614864826147fd565b604082019050919050565b600060208201905081810360008301526148888161484c565b9050919050565b7f4f776e61626c653a2063616c6c6572206973206e6f7420746865206f776e6572600082015250565b60006148c5602083612f49565b91506148d08261488f565b602082019050919050565b600060208201905081810360008301526148f4816148b8565b9050919050565b7f4552433732313a20617070726f766520746f2063616c6c657200000000000000600082015250565b6000614931601983612f49565b915061493c826148fb565b602082019050919050565b6000602082019050818103600083015261496081614924565b9050919050565b60008151905061497681613003565b92915050565b60006020828403121561499257614991612e79565b5b60006149a084828501614967565b91505092915050565b7f4e487b7100000000000000000000000000000000000000000000000000000000600052603260045260246000fd5b7f6164647265737320696e2070726f6f66206973206e6f7420612073656e64657260008201527f2061646472657373000000000000000000000000000000000000000000000000602082015250565b6000614a34602883612f49565b9150614a3f826149d8565b604082019050919050565b60006020820190508181036000830152614a6381614a27565b9050919050565b7f70726f6f662063616e206e6f74206265207375626d6974746564206d6f72652060008201527f7468616e206f6e63650000000000000000000000000000000000000000000000602082015250565b6000614ac6602983612f49565b9150614ad182614a6a565b604082019050919050565b60006020820190508181036000830152614af581614ab9565b9050919050565b7f4552433732313a207472616e7366657220746f206e6f6e20455243373231526560008201527f63656976657220696d706c656d656e7465720000000000000000000000000000602082015250565b6000614b58603283612f49565b9150614b6382614afc565b604082019050919050565b60006020820190508181036000830152614b8781614b4b565b9050919050565b7f4e487b7100000000000000000000000000000000000000000000000000000000600052601260045260246000fd5b7f4e487b7100000000000000000000000000000000000000000000000000000000600052601160045260246000fd5b6000614bf782612ff9565b9150614c0283612ff9565b925082821015614c1557614c14614bbd565b5b828203905092915050565b6000614c2b82612ff9565b9150614c3683612ff9565b9250827fffffffffffffffffffffffffffffffffffffffffffffffffffffffffffffffff03821115614c6b57614c6a614bbd565b5b828201905092915050565b600081519050919050565b600082825260208201905092915050565b6000614c9d82614c76565b614ca78185614c81565b9350614cb7818560208601612f5a565b614cc081612f8d565b840191505092915050565b6000608082019050614ce0600083018761308e565b614ced602083018661308e565b614cfa6040830185613124565b8181036060830152614d0c8184614c92565b905095945050505050565b600081519050614d2681612eaf565b92915050565b600060208284031215614d4257614d41612e79565b5b6000614d5084828501614d17565b91505092915050565b7f4552433732313a206d696e7420746f20746865207a65726f2061646472657373600082015250565b6000614d8f602083612f49565b9150614d9a82614d59565b602082019050919050565b60006020820190508181036000830152614dbe81614d82565b9050919050565b7f4552433732313a20746f6b656e20616c7265616479206d696e74656400000000600082015250565b6000614dfb601c83612f49565b9150614e0682614dc5565b602082019050919050565b60006020820190508181036000830152614e2a81614dee565b905091905056fea26469706673582212200d792943d1123adb1a4366cbe4de976a58d26a8de11f4d2a4349dc8f6114d91e64736f6c63430008090033",
  "devdoc": {
    "kind": "dev",
    "methods": {
      "approve(address,uint256)": {
        "details": "See {IERC721-approve}."
      },
      "balanceOf(address)": {
        "details": "See {IERC721-balanceOf}."
      },
      "getApproved(uint256)": {
        "details": "See {IERC721-getApproved}."
      },
      "getSupportedRequests()": {
        "details": "getSupportedRequests"
      },
      "getZKPRequest(uint64)": {
        "details": "getZKPRequest"
      },
      "isApprovedForAll(address,address)": {
        "details": "See {IERC721-isApprovedForAll}."
      },
      "name()": {
        "details": "See {IERC721Metadata-name}."
      },
      "owner()": {
        "details": "Returns the address of the current owner."
      },
      "ownerOf(uint256)": {
        "details": "See {IERC721-ownerOf}."
      },
      "renounceOwnership()": {
        "details": "Leaves the contract without owner. It will not be possible to call `onlyOwner` functions anymore. Can only be called by the current owner. NOTE: Renouncing ownership will leave the contract without an owner, thereby removing any functionality that is only available to the owner."
      },
      "safeTransferFrom(address,address,uint256)": {
        "details": "See {IERC721-safeTransferFrom}."
      },
      "safeTransferFrom(address,address,uint256,bytes)": {
        "details": "See {IERC721-safeTransferFrom}."
      },
      "setApprovalForAll(address,bool)": {
        "details": "See {IERC721-setApprovalForAll}."
      },
      "setZKPRequest(uint64,address,(uint256,uint256,uint256,uint256[],string))": {
        "details": "setZKPRequest"
      },
      "submitZKPResponse(uint64,uint256[],uint256[2],uint256[2][2],uint256[2])": {
        "details": "submitZKPResponse"
      },
      "supportsInterface(bytes4)": {
        "details": "See {IERC165-supportsInterface}."
      },
      "symbol()": {
        "details": "See {IERC721Metadata-symbol}."
      },
      "tokenURI(uint256)": {
        "details": "See {IERC721Metadata-tokenURI}."
      },
      "transferFrom(address,address,uint256)": {
        "details": "See {IERC721-transferFrom}."
      },
      "transferOwnership(address)": {
        "details": "Transfers ownership of the contract to a new account (`newOwner`). Can only be called by the current owner."
      }
    },
    "version": 1
  },
  "userdoc": {
    "kind": "user",
    "methods": {},
    "version": 1
  },
  "storageLayout": {
    "storage": [
      {
        "astId": 138,
        "contract": "contracts/Mansions.sol:RealEstateVerifier",
        "label": "_name",
        "offset": 0,
        "slot": "0",
        "type": "t_string_storage"
      },
      {
        "astId": 140,
        "contract": "contracts/Mansions.sol:RealEstateVerifier",
        "label": "_symbol",
        "offset": 0,
        "slot": "1",
        "type": "t_string_storage"
      },
      {
        "astId": 144,
        "contract": "contracts/Mansions.sol:RealEstateVerifier",
        "label": "_owners",
        "offset": 0,
        "slot": "2",
        "type": "t_mapping(t_uint256,t_address)"
      },
      {
        "astId": 148,
        "contract": "contracts/Mansions.sol:RealEstateVerifier",
        "label": "_balances",
        "offset": 0,
        "slot": "3",
        "type": "t_mapping(t_address,t_uint256)"
      },
      {
        "astId": 152,
        "contract": "contracts/Mansions.sol:RealEstateVerifier",
        "label": "_tokenApprovals",
        "offset": 0,
        "slot": "4",
        "type": "t_mapping(t_uint256,t_address)"
      },
      {
        "astId": 158,
        "contract": "contracts/Mansions.sol:RealEstateVerifier",
        "label": "_operatorApprovals",
        "offset": 0,
        "slot": "5",
        "type": "t_mapping(t_address,t_mapping(t_address,t_bool))"
      },
      {
        "astId": 7,
        "contract": "contracts/Mansions.sol:RealEstateVerifier",
        "label": "_owner",
        "offset": 0,
        "slot": "6",
        "type": "t_address"
      },
      {
        "astId": 3575,
        "contract": "contracts/Mansions.sol:RealEstateVerifier",
        "label": "proofs",
        "offset": 0,
        "slot": "7",
        "type": "t_mapping(t_address,t_mapping(t_uint64,t_bool))"
      },
      {
        "astId": 3580,
        "contract": "contracts/Mansions.sol:RealEstateVerifier",
        "label": "requestQueries",
        "offset": 0,
        "slot": "8",
        "type": "t_mapping(t_uint64,t_struct(CircuitQuery)3063_storage)"
      },
      {
        "astId": 3585,
        "contract": "contracts/Mansions.sol:RealEstateVerifier",
        "label": "requestValidators",
        "offset": 0,
        "slot": "9",
        "type": "t_mapping(t_uint64,t_contract(ICircuitValidator)3108)"
      },
      {
        "astId": 3588,
        "contract": "contracts/Mansions.sol:RealEstateVerifier",
        "label": "supportedRequests",
        "offset": 0,
        "slot": "10",
        "type": "t_array(t_uint64)dyn_storage"
      },
      {
        "astId": 2862,
        "contract": "contracts/Mansions.sol:RealEstateVerifier",
        "label": "erc721Name",
        "offset": 0,
        "slot": "11",
        "type": "t_string_storage"
      },
      {
        "astId": 2864,
        "contract": "contracts/Mansions.sol:RealEstateVerifier",
        "label": "erc721Symbol",
        "offset": 0,
        "slot": "12",
        "type": "t_string_storage"
      },
      {
        "astId": 2868,
        "contract": "contracts/Mansions.sol:RealEstateVerifier",
        "label": "idToAddress",
        "offset": 0,
        "slot": "13",
        "type": "t_mapping(t_uint256,t_address)"
      },
      {
        "astId": 2872,
        "contract": "contracts/Mansions.sol:RealEstateVerifier",
        "label": "addressToId",
        "offset": 0,
        "slot": "14",
        "type": "t_mapping(t_address,t_uint256)"
      },
      {
        "astId": 2879,
        "contract": "contracts/Mansions.sol:RealEstateVerifier",
        "label": "_tokenIds",
        "offset": 0,
        "slot": "15",
        "type": "t_struct(Counter)1701_storage"
      }
    ],
    "types": {
      "t_address": {
        "encoding": "inplace",
        "label": "address",
        "numberOfBytes": "20"
      },
      "t_array(t_uint256)dyn_storage": {
        "base": "t_uint256",
        "encoding": "dynamic_array",
        "label": "uint256[]",
        "numberOfBytes": "32"
      },
      "t_array(t_uint64)dyn_storage": {
        "base": "t_uint64",
        "encoding": "dynamic_array",
        "label": "uint64[]",
        "numberOfBytes": "32"
      },
      "t_bool": {
        "encoding": "inplace",
        "label": "bool",
        "numberOfBytes": "1"
      },
      "t_contract(ICircuitValidator)3108": {
        "encoding": "inplace",
        "label": "contract ICircuitValidator",
        "numberOfBytes": "20"
      },
      "t_mapping(t_address,t_bool)": {
        "encoding": "mapping",
        "key": "t_address",
        "label": "mapping(address => bool)",
        "numberOfBytes": "32",
        "value": "t_bool"
      },
      "t_mapping(t_address,t_mapping(t_address,t_bool))": {
        "encoding": "mapping",
        "key": "t_address",
        "label": "mapping(address => mapping(address => bool))",
        "numberOfBytes": "32",
        "value": "t_mapping(t_address,t_bool)"
      },
      "t_mapping(t_address,t_mapping(t_uint64,t_bool))": {
        "encoding": "mapping",
        "key": "t_address",
        "label": "mapping(address => mapping(uint64 => bool))",
        "numberOfBytes": "32",
        "value": "t_mapping(t_uint64,t_bool)"
      },
      "t_mapping(t_address,t_uint256)": {
        "encoding": "mapping",
        "key": "t_address",
        "label": "mapping(address => uint256)",
        "numberOfBytes": "32",
        "value": "t_uint256"
      },
      "t_mapping(t_uint256,t_address)": {
        "encoding": "mapping",
        "key": "t_uint256",
        "label": "mapping(uint256 => address)",
        "numberOfBytes": "32",
        "value": "t_address"
      },
      "t_mapping(t_uint64,t_bool)": {
        "encoding": "mapping",
        "key": "t_uint64",
        "label": "mapping(uint64 => bool)",
        "numberOfBytes": "32",
        "value": "t_bool"
      },
      "t_mapping(t_uint64,t_contract(ICircuitValidator)3108)": {
        "encoding": "mapping",
        "key": "t_uint64",
        "label": "mapping(uint64 => contract ICircuitValidator)",
        "numberOfBytes": "32",
        "value": "t_contract(ICircuitValidator)3108"
      },
      "t_mapping(t_uint64,t_struct(CircuitQuery)3063_storage)": {
        "encoding": "mapping",
        "key": "t_uint64",
        "label": "mapping(uint64 => struct ICircuitValidator.CircuitQuery)",
        "numberOfBytes": "32",
        "value": "t_struct(CircuitQuery)3063_storage"
      },
      "t_string_storage": {
        "encoding": "bytes",
        "label": "string",
        "numberOfBytes": "32"
      },
      "t_struct(CircuitQuery)3063_storage": {
        "encoding": "inplace",
        "label": "struct ICircuitValidator.CircuitQuery",
        "members": [
          {
            "astId": 3053,
            "contract": "contracts/Mansions.sol:RealEstateVerifier",
            "label": "schema",
            "offset": 0,
            "slot": "0",
            "type": "t_uint256"
          },
          {
            "astId": 3055,
            "contract": "contracts/Mansions.sol:RealEstateVerifier",
            "label": "slotIndex",
            "offset": 0,
            "slot": "1",
            "type": "t_uint256"
          },
          {
            "astId": 3057,
            "contract": "contracts/Mansions.sol:RealEstateVerifier",
            "label": "operator",
            "offset": 0,
            "slot": "2",
            "type": "t_uint256"
          },
          {
            "astId": 3060,
            "contract": "contracts/Mansions.sol:RealEstateVerifier",
            "label": "value",
            "offset": 0,
            "slot": "3",
            "type": "t_array(t_uint256)dyn_storage"
          },
          {
            "astId": 3062,
            "contract": "contracts/Mansions.sol:RealEstateVerifier",
            "label": "circuitId",
            "offset": 0,
            "slot": "4",
            "type": "t_string_storage"
          }
        ],
        "numberOfBytes": "160"
      },
      "t_struct(Counter)1701_storage": {
        "encoding": "inplace",
        "label": "struct Counters.Counter",
        "members": [
          {
            "astId": 1700,
            "contract": "contracts/Mansions.sol:RealEstateVerifier",
            "label": "_value",
            "offset": 0,
            "slot": "0",
            "type": "t_uint256"
          }
        ],
        "numberOfBytes": "32"
      },
      "t_uint256": {
        "encoding": "inplace",
        "label": "uint256",
        "numberOfBytes": "32"
      },
      "t_uint64": {
        "encoding": "inplace",
        "label": "uint64",
        "numberOfBytes": "8"
      }
    }
  }
}